{
  "_format": "hh-sol-artifact-1",
  "contractName": "Bridge",
  "sourceName": "contracts/Bridge.sol",
  "abi": [
    {
      "inputs": [
        {
          "internalType": "address",
          "name": "_bridgeSigner",
          "type": "address"
        },
        {
          "internalType": "address",
          "name": "_jumpToken",
          "type": "address"
        }
      ],
      "stateMutability": "nonpayable",
      "type": "constructor"
    },
    {
      "anonymous": false,
      "inputs": [
        {
          "indexed": false,
          "internalType": "uint256",
          "name": "amount",
          "type": "uint256"
        },
        {
          "indexed": false,
          "internalType": "address",
          "name": "recipient",
          "type": "address"
        }
      ],
      "name": "BridgeToken",
      "type": "event"
    },
    {
      "inputs": [],
      "name": "JumpToken",
      "outputs": [
        {
          "internalType": "contract ERC20",
          "name": "",
          "type": "address"
        }
      ],
      "stateMutability": "view",
      "type": "function"
    },
    {
      "inputs": [],
      "name": "bridgeSigner",
      "outputs": [
        {
          "internalType": "address",
          "name": "",
          "type": "address"
        }
      ],
      "stateMutability": "view",
      "type": "function"
    },
    {
      "inputs": [
        {
          "internalType": "uint256",
          "name": "amount",
          "type": "uint256"
        },
        {
          "internalType": "string",
          "name": "nearTransactionHash",
          "type": "string"
        },
        {
          "internalType": "bytes",
          "name": "serverSignature",
          "type": "bytes"
        }
      ],
      "name": "bridgeToken",
      "outputs": [
        {
          "internalType": "bool",
          "name": "",
          "type": "bool"
        }
      ],
      "stateMutability": "nonpayable",
      "type": "function"
    },
    {
      "inputs": [
        {
          "internalType": "bytes",
          "name": "",
          "type": "bytes"
        }
      ],
      "name": "processedSignature",
      "outputs": [
        {
          "internalType": "bool",
          "name": "",
          "type": "bool"
        }
      ],
      "stateMutability": "view",
      "type": "function"
    },
    {
      "inputs": [
        {
          "internalType": "bytes32",
          "name": "_ethSignedMessageHash",
          "type": "bytes32"
        },
        {
          "internalType": "bytes",
          "name": "_signature",
          "type": "bytes"
        }
      ],
      "name": "recoverSigner",
      "outputs": [
        {
          "internalType": "address",
          "name": "",
          "type": "address"
        }
      ],
      "stateMutability": "pure",
      "type": "function"
    },
    {
      "inputs": [
        {
          "internalType": "bytes",
          "name": "sig",
          "type": "bytes"
        }
      ],
      "name": "splitSignature",
      "outputs": [
        {
          "internalType": "bytes32",
          "name": "r",
          "type": "bytes32"
        },
        {
          "internalType": "bytes32",
          "name": "s",
          "type": "bytes32"
        },
        {
          "internalType": "uint8",
          "name": "v",
          "type": "uint8"
        }
      ],
      "stateMutability": "pure",
      "type": "function"
    }
  ],
  "bytecode": "0x60806040523480156200001157600080fd5b50604051620011953803806200119583398181016040528101906200003791906200012a565b816000806101000a81548173ffffffffffffffffffffffffffffffffffffffff021916908373ffffffffffffffffffffffffffffffffffffffff16021790555080600160006101000a81548173ffffffffffffffffffffffffffffffffffffffff021916908373ffffffffffffffffffffffffffffffffffffffff160217905550505062000171565b600080fd5b600073ffffffffffffffffffffffffffffffffffffffff82169050919050565b6000620000f282620000c5565b9050919050565b6200010481620000e5565b81146200011057600080fd5b50565b6000815190506200012481620000f9565b92915050565b60008060408385031215620001445762000143620000c0565b5b6000620001548582860162000113565b9250506020620001678582860162000113565b9150509250929050565b61101480620001816000396000f3fe608060405234801561001057600080fd5b50600436106100625760003560e01c8063139768bd146100675780631e04496f1461008557806363f901bb146100b557806397aba7f9146100d3578063a7bb580314610103578063e118006614610135575b600080fd5b61006f610165565b60405161007c91906106ab565b60405180910390f35b61009f600480360381019061009a91906108f7565b61018b565b6040516100ac919061099d565b60405180910390f35b6100bd6104cb565b6040516100ca91906109d9565b60405180910390f35b6100ed60048036038101906100e89190610a2a565b6104ef565b6040516100fa91906109d9565b60405180910390f35b61011d60048036038101906101189190610a86565b61055e565b60405161012c93929190610afa565b60405180910390f35b61014f600480360381019061014a9190610a86565b6105c6565b60405161015c919061099d565b60405180910390f35b600160009054906101000a900473ffffffffffffffffffffffffffffffffffffffff1681565b60008015156002836040516101a09190610ba2565b908152602001604051809103902060009054906101000a900460ff161515146101fe576040517f08c379a00000000000000000000000000000000000000000000000000000000081526004016101f590610c16565b60405180910390fd5b83600160009054906101000a900473ffffffffffffffffffffffffffffffffffffffff1673ffffffffffffffffffffffffffffffffffffffff166370a08231306040518263ffffffff1660e01b815260040161025a91906109d9565b602060405180830381865afa158015610277573d6000803e3d6000fd5b505050506040513d601f19601f8201168201806040525081019061029b9190610c4b565b10156102dc576040517f08c379a00000000000000000000000000000000000000000000000000000000081526004016102d390610cc4565b60405180910390fd5b600083856040516020016102f1929190610d4c565b6040516020818303038152906040528051906020012090506000610314826105fc565b905060008054906101000a900473ffffffffffffffffffffffffffffffffffffffff1673ffffffffffffffffffffffffffffffffffffffff1661035782866104ef565b73ffffffffffffffffffffffffffffffffffffffff16146103ad576040517f08c379a00000000000000000000000000000000000000000000000000000000081526004016103a490610dc0565b60405180910390fd5b60016002856040516103bf9190610ba2565b908152602001604051809103902060006101000a81548160ff021916908315150217905550600160009054906101000a900473ffffffffffffffffffffffffffffffffffffffff1673ffffffffffffffffffffffffffffffffffffffff1663a9059cbb33886040518363ffffffff1660e01b8152600401610441929190610def565b6020604051808303816000875af1158015610460573d6000803e3d6000fd5b505050506040513d601f19601f820116820180604052508101906104849190610e44565b507f7b2fa6e4ffef4fc1c232b7e45e54f95cc9b19720a5e57ce543011cd08b89172286336040516104b6929190610e71565b60405180910390a16001925050509392505050565b60008054906101000a900473ffffffffffffffffffffffffffffffffffffffff1681565b6000806000806104fe8561055e565b925092509250600186828585604051600081526020016040526040516105279493929190610e9a565b6020604051602081039080840390855afa158015610549573d6000803e3d6000fd5b50505060206040510351935050505092915050565b600080600060418451146105a7576040517f08c379a000000000000000000000000000000000000000000000000000000000815260040161059e90610f2b565b60405180910390fd5b6020840151925060408401519150606084015160001a90509193909250565b6002818051602081018201805184825260208301602085012081835280955050505050506000915054906101000a900460ff1681565b60008160405160200161060f9190610fb8565b604051602081830303815290604052805190602001209050919050565b600073ffffffffffffffffffffffffffffffffffffffff82169050919050565b6000819050919050565b600061067161066c6106678461062c565b61064c565b61062c565b9050919050565b600061068382610656565b9050919050565b600061069582610678565b9050919050565b6106a58161068a565b82525050565b60006020820190506106c0600083018461069c565b92915050565b6000604051905090565b600080fd5b600080fd5b6000819050919050565b6106ed816106da565b81146106f857600080fd5b50565b60008135905061070a816106e4565b92915050565b600080fd5b600080fd5b6000601f19601f8301169050919050565b7f4e487b7100000000000000000000000000000000000000000000000000000000600052604160045260246000fd5b6107638261071a565b810181811067ffffffffffffffff821117156107825761078161072b565b5b80604052505050565b60006107956106c6565b90506107a1828261075a565b919050565b600067ffffffffffffffff8211156107c1576107c061072b565b5b6107ca8261071a565b9050602081019050919050565b82818337600083830152505050565b60006107f96107f4846107a6565b61078b565b90508281526020810184848401111561081557610814610715565b5b6108208482856107d7565b509392505050565b600082601f83011261083d5761083c610710565b5b813561084d8482602086016107e6565b91505092915050565b600067ffffffffffffffff8211156108715761087061072b565b5b61087a8261071a565b9050602081019050919050565b600061089a61089584610856565b61078b565b9050828152602081018484840111156108b6576108b5610715565b5b6108c18482856107d7565b509392505050565b600082601f8301126108de576108dd610710565b5b81356108ee848260208601610887565b91505092915050565b6000806000606084860312156109105761090f6106d0565b5b600061091e868287016106fb565b935050602084013567ffffffffffffffff81111561093f5761093e6106d5565b5b61094b86828701610828565b925050604084013567ffffffffffffffff81111561096c5761096b6106d5565b5b610978868287016108c9565b9150509250925092565b60008115159050919050565b61099781610982565b82525050565b60006020820190506109b2600083018461098e565b92915050565b60006109c38261062c565b9050919050565b6109d3816109b8565b82525050565b60006020820190506109ee60008301846109ca565b92915050565b6000819050919050565b610a07816109f4565b8114610a1257600080fd5b50565b600081359050610a24816109fe565b92915050565b60008060408385031215610a4157610a406106d0565b5b6000610a4f85828601610a15565b925050602083013567ffffffffffffffff811115610a7057610a6f6106d5565b5b610a7c858286016108c9565b9150509250929050565b600060208284031215610a9c57610a9b6106d0565b5b600082013567ffffffffffffffff811115610aba57610ab96106d5565b5b610ac6848285016108c9565b91505092915050565b610ad8816109f4565b82525050565b600060ff82169050919050565b610af481610ade565b82525050565b6000606082019050610b0f6000830186610acf565b610b1c6020830185610acf565b610b296040830184610aeb565b949350505050565b600081519050919050565b600081905092915050565b60005b83811015610b65578082015181840152602081019050610b4a565b60008484015250505050565b6000610b7c82610b31565b610b868185610b3c565b9350610b96818560208601610b47565b80840191505092915050565b6000610bae8284610b71565b915081905092915050565b600082825260208201905092915050565b7f5369676e617475726520616c72656164792070726f6365737365640000000000600082015250565b6000610c00601b83610bb9565b9150610c0b82610bca565b602082019050919050565b60006020820190508181036000830152610c2f81610bf3565b9050919050565b600081519050610c45816106e4565b92915050565b600060208284031215610c6157610c606106d0565b5b6000610c6f84828501610c36565b91505092915050565b7f496e73756666696369656e742062616c616e636520696e20636f6e7472616374600082015250565b6000610cae602083610bb9565b9150610cb982610c78565b602082019050919050565b60006020820190508181036000830152610cdd81610ca1565b9050919050565b600081519050919050565b600081905092915050565b6000610d0582610ce4565b610d0f8185610cef565b9350610d1f818560208601610b47565b80840191505092915050565b6000819050919050565b610d46610d41826106da565b610d2b565b82525050565b6000610d588285610cfa565b9150610d648284610d35565b6020820191508190509392505050565b7f496e76616c6964207369676e6174757265000000000000000000000000000000600082015250565b6000610daa601183610bb9565b9150610db582610d74565b602082019050919050565b60006020820190508181036000830152610dd981610d9d565b9050919050565b610de9816106da565b82525050565b6000604082019050610e0460008301856109ca565b610e116020830184610de0565b9392505050565b610e2181610982565b8114610e2c57600080fd5b50565b600081519050610e3e81610e18565b92915050565b600060208284031215610e5a57610e596106d0565b5b6000610e6884828501610e2f565b91505092915050565b6000604082019050610e866000830185610de0565b610e9360208301846109ca565b9392505050565b6000608082019050610eaf6000830187610acf565b610ebc6020830186610aeb565b610ec96040830185610acf565b610ed66060830184610acf565b95945050505050565b7f696e76616c6964207369676e6174757265206c656e6774680000000000000000600082015250565b6000610f15601883610bb9565b9150610f2082610edf565b602082019050919050565b60006020820190508181036000830152610f4481610f08565b9050919050565b7f19457468657265756d205369676e6564204d6573736167653a0a333200000000600082015250565b6000610f81601c83610cef565b9150610f8c82610f4b565b601c82019050919050565b6000819050919050565b610fb2610fad826109f4565b610f97565b82525050565b6000610fc382610f74565b9150610fcf8284610fa1565b6020820191508190509291505056fea2646970667358221220bb6dd3069f20e71ccfa8216eab2e0887f5c01f0f72c2ec40485c9be9a1ce91c464736f6c63430008120033",
  "linkReferences": {},
  "deployedLinkReferences": {}
}