{
  "_format": "hh-sol-artifact-1",
  "contractName": "LockedJump",
  "sourceName": "contracts/LockedJump.sol",
  "abi": [
    {
      "inputs": [
        {
          "internalType": "address",
          "name": "vestingTokenAddress",
          "type": "address"
        },
        {
          "internalType": "string",
          "name": "name",
          "type": "string"
        },
        {
          "internalType": "string",
          "name": "symbol",
          "type": "string"
        }
      ],
      "stateMutability": "nonpayable",
      "type": "constructor"
    },
    {
      "anonymous": false,
      "inputs": [
        {
          "indexed": true,
          "internalType": "address",
          "name": "owner",
          "type": "address"
        },
        {
          "indexed": true,
          "internalType": "address",
          "name": "spender",
          "type": "address"
        },
        {
          "indexed": false,
          "internalType": "uint256",
          "name": "value",
          "type": "uint256"
        }
      ],
      "name": "Approval",
      "type": "event"
    },
    {
      "anonymous": false,
      "inputs": [
        {
          "indexed": true,
          "internalType": "address",
          "name": "previousOwner",
          "type": "address"
        },
        {
          "indexed": true,
          "internalType": "address",
          "name": "newOwner",
          "type": "address"
        }
      ],
      "name": "OwnershipTransferred",
      "type": "event"
    },
    {
      "anonymous": false,
      "inputs": [
        {
          "indexed": true,
          "internalType": "address",
          "name": "from",
          "type": "address"
        },
        {
          "indexed": true,
          "internalType": "address",
          "name": "to",
          "type": "address"
        },
        {
          "indexed": false,
          "internalType": "uint256",
          "name": "value",
          "type": "uint256"
        }
      ],
      "name": "Transfer",
      "type": "event"
    },
    {
      "inputs": [],
      "name": "VESTING_DAYS",
      "outputs": [
        {
          "internalType": "uint256",
          "name": "",
          "type": "uint256"
        }
      ],
      "stateMutability": "view",
      "type": "function"
    },
    {
      "inputs": [
        {
          "internalType": "address",
          "name": "owner",
          "type": "address"
        },
        {
          "internalType": "address",
          "name": "spender",
          "type": "address"
        }
      ],
      "name": "allowance",
      "outputs": [
        {
          "internalType": "uint256",
          "name": "",
          "type": "uint256"
        }
      ],
      "stateMutability": "view",
      "type": "function"
    },
    {
      "inputs": [
        {
          "internalType": "address",
          "name": "spender",
          "type": "address"
        },
        {
          "internalType": "uint256",
          "name": "amount",
          "type": "uint256"
        }
      ],
      "name": "approve",
      "outputs": [
        {
          "internalType": "bool",
          "name": "",
          "type": "bool"
        }
      ],
      "stateMutability": "nonpayable",
      "type": "function"
    },
    {
      "inputs": [
        {
          "internalType": "address",
          "name": "account",
          "type": "address"
        }
      ],
      "name": "balanceOf",
      "outputs": [
        {
          "internalType": "uint256",
          "name": "",
          "type": "uint256"
        }
      ],
      "stateMutability": "view",
      "type": "function"
    },
    {
      "inputs": [
        {
          "internalType": "address",
          "name": "vestingAddress",
          "type": "address"
        },
        {
          "internalType": "uint256",
          "name": "vestingId",
          "type": "uint256"
        }
      ],
      "name": "buyFastPass",
      "outputs": [],
      "stateMutability": "nonpayable",
      "type": "function"
    },
    {
      "inputs": [
        {
          "internalType": "uint256",
          "name": "vestingId",
          "type": "uint256"
        }
      ],
      "name": "claimVesting",
      "outputs": [],
      "stateMutability": "nonpayable",
      "type": "function"
    },
    {
      "inputs": [],
      "name": "decimals",
      "outputs": [
        {
          "internalType": "uint8",
          "name": "",
          "type": "uint8"
        }
      ],
      "stateMutability": "view",
      "type": "function"
    },
    {
      "inputs": [
        {
          "internalType": "address",
          "name": "spender",
          "type": "address"
        },
        {
          "internalType": "uint256",
          "name": "subtractedValue",
          "type": "uint256"
        }
      ],
      "name": "decreaseAllowance",
      "outputs": [
        {
          "internalType": "bool",
          "name": "",
          "type": "bool"
        }
      ],
      "stateMutability": "nonpayable",
      "type": "function"
    },
    {
      "inputs": [],
      "name": "fastPassPrice",
      "outputs": [
        {
          "internalType": "uint256",
          "name": "",
          "type": "uint256"
        }
      ],
      "stateMutability": "view",
      "type": "function"
    },
    {
      "inputs": [
        {
          "internalType": "address",
          "name": "vestingAddress",
          "type": "address"
        },
        {
          "internalType": "uint256",
          "name": "vestingId",
          "type": "uint256"
        }
      ],
      "name": "getClaimableAmount",
      "outputs": [
        {
          "internalType": "uint256",
          "name": "",
          "type": "uint256"
        }
      ],
      "stateMutability": "view",
      "type": "function"
    },
    {
      "inputs": [
        {
          "internalType": "address",
          "name": "vestingAddress",
          "type": "address"
        },
        {
          "internalType": "uint256",
          "name": "vestingId",
          "type": "uint256"
        }
      ],
      "name": "getFastPassPrice",
      "outputs": [
        {
          "internalType": "uint256",
          "name": "",
          "type": "uint256"
        }
      ],
      "stateMutability": "view",
      "type": "function"
    },
    {
      "inputs": [
        {
          "internalType": "address",
          "name": "vestingAddress",
          "type": "address"
        }
      ],
      "name": "getVestingCount",
      "outputs": [
        {
          "internalType": "uint256",
          "name": "",
          "type": "uint256"
        }
      ],
      "stateMutability": "view",
      "type": "function"
    },
    {
      "inputs": [
        {
          "internalType": "address",
          "name": "vestingAddress",
          "type": "address"
        },
        {
          "internalType": "uint256",
          "name": "vestingId",
          "type": "uint256"
        }
      ],
      "name": "getVestingSchedule",
      "outputs": [
        {
          "components": [
            {
              "internalType": "uint256",
              "name": "totalAmount",
              "type": "uint256"
            },
            {
              "internalType": "uint256",
              "name": "claimedAmount",
              "type": "uint256"
            },
            {
              "internalType": "uint256",
              "name": "startTime",
              "type": "uint256"
            },
            {
              "internalType": "uint256",
              "name": "endTime",
              "type": "uint256"
            },
            {
              "internalType": "uint256",
              "name": "lastClaimedTime",
              "type": "uint256"
            },
            {
              "internalType": "bool",
              "name": "fastPassUsed",
              "type": "bool"
            }
          ],
          "internalType": "struct VestingSchedule",
          "name": "",
          "type": "tuple"
        }
      ],
      "stateMutability": "view",
      "type": "function"
    },
    {
      "inputs": [
        {
          "internalType": "address",
          "name": "vestingAddress",
          "type": "address"
        }
      ],
      "name": "getVestingSchedules",
      "outputs": [
        {
          "components": [
            {
              "internalType": "uint256",
              "name": "totalAmount",
              "type": "uint256"
            },
            {
              "internalType": "uint256",
              "name": "claimedAmount",
              "type": "uint256"
            },
            {
              "internalType": "uint256",
              "name": "startTime",
              "type": "uint256"
            },
            {
              "internalType": "uint256",
              "name": "endTime",
              "type": "uint256"
            },
            {
              "internalType": "uint256",
              "name": "lastClaimedTime",
              "type": "uint256"
            },
            {
              "internalType": "bool",
              "name": "fastPassUsed",
              "type": "bool"
            }
          ],
          "internalType": "struct VestingSchedule[]",
          "name": "",
          "type": "tuple[]"
        }
      ],
      "stateMutability": "view",
      "type": "function"
    },
    {
      "inputs": [
        {
          "internalType": "address",
          "name": "spender",
          "type": "address"
        },
        {
          "internalType": "uint256",
          "name": "addedValue",
          "type": "uint256"
        }
      ],
      "name": "increaseAllowance",
      "outputs": [
        {
          "internalType": "bool",
          "name": "",
          "type": "bool"
        }
      ],
      "stateMutability": "nonpayable",
      "type": "function"
    },
    {
      "inputs": [
        {
          "internalType": "address",
          "name": "vestingAddress",
          "type": "address"
        },
        {
          "internalType": "uint256",
          "name": "amount",
          "type": "uint256"
        }
      ],
      "name": "initVesting",
      "outputs": [],
      "stateMutability": "nonpayable",
      "type": "function"
    },
    {
      "inputs": [],
      "name": "name",
      "outputs": [
        {
          "internalType": "string",
          "name": "",
          "type": "string"
        }
      ],
      "stateMutability": "view",
      "type": "function"
    },
    {
      "inputs": [],
      "name": "owner",
      "outputs": [
        {
          "internalType": "address",
          "name": "",
          "type": "address"
        }
      ],
      "stateMutability": "view",
      "type": "function"
    },
    {
      "inputs": [],
      "name": "renounceOwnership",
      "outputs": [],
      "stateMutability": "nonpayable",
      "type": "function"
    },
    {
      "inputs": [
        {
          "internalType": "address",
          "name": "adminAddress",
          "type": "address"
        },
        {
          "internalType": "bool",
          "name": "isAdmin",
          "type": "bool"
        }
      ],
      "name": "setAdmin",
      "outputs": [],
      "stateMutability": "nonpayable",
      "type": "function"
    },
    {
      "inputs": [
        {
          "internalType": "uint256",
          "name": "percentage",
          "type": "uint256"
        }
      ],
      "name": "setFastPassPricePerc",
      "outputs": [],
      "stateMutability": "nonpayable",
      "type": "function"
    },
    {
      "inputs": [],
      "name": "symbol",
      "outputs": [
        {
          "internalType": "string",
          "name": "",
          "type": "string"
        }
      ],
      "stateMutability": "view",
      "type": "function"
    },
    {
      "inputs": [],
      "name": "totalSupply",
      "outputs": [
        {
          "internalType": "uint256",
          "name": "",
          "type": "uint256"
        }
      ],
      "stateMutability": "view",
      "type": "function"
    },
    {
      "inputs": [
        {
          "internalType": "address",
          "name": "to",
          "type": "address"
        },
        {
          "internalType": "uint256",
          "name": "amount",
          "type": "uint256"
        }
      ],
      "name": "transfer",
      "outputs": [
        {
          "internalType": "bool",
          "name": "",
          "type": "bool"
        }
      ],
      "stateMutability": "nonpayable",
      "type": "function"
    },
    {
      "inputs": [
        {
          "internalType": "address",
          "name": "from",
          "type": "address"
        },
        {
          "internalType": "address",
          "name": "to",
          "type": "address"
        },
        {
          "internalType": "uint256",
          "name": "amount",
          "type": "uint256"
        }
      ],
      "name": "transferFrom",
      "outputs": [
        {
          "internalType": "bool",
          "name": "",
          "type": "bool"
        }
      ],
      "stateMutability": "nonpayable",
      "type": "function"
    },
    {
      "inputs": [
        {
          "internalType": "address",
          "name": "newOwner",
          "type": "address"
        }
      ],
      "name": "transferOwnership",
      "outputs": [],
      "stateMutability": "nonpayable",
      "type": "function"
    },
    {
      "inputs": [
        {
          "internalType": "address",
          "name": "",
          "type": "address"
        }
      ],
      "name": "vestingCount",
      "outputs": [
        {
          "internalType": "uint256",
          "name": "",
          "type": "uint256"
        }
      ],
      "stateMutability": "view",
      "type": "function"
    },
    {
      "inputs": [
        {
          "internalType": "address",
          "name": "",
          "type": "address"
        },
        {
          "internalType": "uint256",
          "name": "",
          "type": "uint256"
        }
      ],
      "name": "vestingSchedules",
      "outputs": [
        {
          "internalType": "uint256",
          "name": "totalAmount",
          "type": "uint256"
        },
        {
          "internalType": "uint256",
          "name": "claimedAmount",
          "type": "uint256"
        },
        {
          "internalType": "uint256",
          "name": "startTime",
          "type": "uint256"
        },
        {
          "internalType": "uint256",
          "name": "endTime",
          "type": "uint256"
        },
        {
          "internalType": "uint256",
          "name": "lastClaimedTime",
          "type": "uint256"
        },
        {
          "internalType": "bool",
          "name": "fastPassUsed",
          "type": "bool"
        }
      ],
      "stateMutability": "view",
      "type": "function"
    },
    {
      "inputs": [],
      "name": "vestingToken",
      "outputs": [
        {
          "internalType": "contract ERC20",
          "name": "",
          "type": "address"
        }
      ],
      "stateMutability": "view",
      "type": "function"
    }
  ],
  "bytecode": "0x60806040526101f4600a553480156200001757600080fd5b5060405162003fea38038062003fea83398181016040528101906200003d9190620003ed565b81818160039081620000509190620006d2565b508060049081620000629190620006d2565b50505062000085620000796200012760201b60201c565b6200012f60201b60201c565b82600660006101000a81548173ffffffffffffffffffffffffffffffffffffffff021916908373ffffffffffffffffffffffffffffffffffffffff1602179055506001600760003373ffffffffffffffffffffffffffffffffffffffff1673ffffffffffffffffffffffffffffffffffffffff16815260200190815260200160002060006101000a81548160ff021916908315150217905550505050620007b9565b600033905090565b6000600560009054906101000a900473ffffffffffffffffffffffffffffffffffffffff16905081600560006101000a81548173ffffffffffffffffffffffffffffffffffffffff021916908373ffffffffffffffffffffffffffffffffffffffff1602179055508173ffffffffffffffffffffffffffffffffffffffff168173ffffffffffffffffffffffffffffffffffffffff167f8be0079c531659141344cd1fd0a4f28419497f9722a3daafe3b4186f6b6457e060405160405180910390a35050565b6000604051905090565b600080fd5b600080fd5b600073ffffffffffffffffffffffffffffffffffffffff82169050919050565b6000620002368262000209565b9050919050565b620002488162000229565b81146200025457600080fd5b50565b60008151905062000268816200023d565b92915050565b600080fd5b600080fd5b6000601f19601f8301169050919050565b7f4e487b7100000000000000000000000000000000000000000000000000000000600052604160045260246000fd5b620002c38262000278565b810181811067ffffffffffffffff82111715620002e557620002e462000289565b5b80604052505050565b6000620002fa620001f5565b9050620003088282620002b8565b919050565b600067ffffffffffffffff8211156200032b576200032a62000289565b5b620003368262000278565b9050602081019050919050565b60005b838110156200036357808201518184015260208101905062000346565b60008484015250505050565b60006200038662000380846200030d565b620002ee565b905082815260208101848484011115620003a557620003a462000273565b5b620003b284828562000343565b509392505050565b600082601f830112620003d257620003d16200026e565b5b8151620003e48482602086016200036f565b91505092915050565b600080600060608486031215620004095762000408620001ff565b5b6000620004198682870162000257565b935050602084015167ffffffffffffffff8111156200043d576200043c62000204565b5b6200044b86828701620003ba565b925050604084015167ffffffffffffffff8111156200046f576200046e62000204565b5b6200047d86828701620003ba565b9150509250925092565b600081519050919050565b7f4e487b7100000000000000000000000000000000000000000000000000000000600052602260045260246000fd5b60006002820490506001821680620004da57607f821691505b602082108103620004f057620004ef62000492565b5b50919050565b60008190508160005260206000209050919050565b60006020601f8301049050919050565b600082821b905092915050565b6000600883026200055a7fffffffffffffffffffffffffffffffffffffffffffffffffffffffffffffffff826200051b565b6200056686836200051b565b95508019841693508086168417925050509392505050565b6000819050919050565b6000819050919050565b6000620005b3620005ad620005a7846200057e565b62000588565b6200057e565b9050919050565b6000819050919050565b620005cf8362000592565b620005e7620005de82620005ba565b84845462000528565b825550505050565b600090565b620005fe620005ef565b6200060b818484620005c4565b505050565b5b81811015620006335762000627600082620005f4565b60018101905062000611565b5050565b601f82111562000682576200064c81620004f6565b62000657846200050b565b8101602085101562000667578190505b6200067f62000676856200050b565b83018262000610565b50505b505050565b600082821c905092915050565b6000620006a76000198460080262000687565b1980831691505092915050565b6000620006c2838362000694565b9150826002028217905092915050565b620006dd8262000487565b67ffffffffffffffff811115620006f957620006f862000289565b5b620007058254620004c1565b6200071282828562000637565b600060209050601f8311600181146200074a576000841562000735578287015190505b620007418582620006b4565b865550620007b1565b601f1984166200075a86620004f6565b60005b8281101562000784578489015182556001820191506020850194506020810190506200075d565b86831015620007a45784890151620007a0601f89168262000694565b8355505b6001600288020188555050505b505050505050565b61382180620007c96000396000f3fe608060405234801561001057600080fd5b50600436106101cf5760003560e01c80636e2b849411610104578063a9059cbb116100a2578063bed9757e11610071578063bed9757e1461056f578063c21b6d1a1461059f578063dd62ed3e146105cf578063f2fde38b146105ff576101cf565b8063a9059cbb146104c3578063ac97b417146104f3578063b3743f601461050f578063bb6a4e1e1461053f576101cf565b80638151749e116100de5780638151749e1461043b5780638da5cb5b1461045757806395d89b4114610475578063a457c2d714610493576101cf565b80636e2b8494146103e357806370a0823114610401578063715018a614610431576101cf565b80633d4ef007116101715780634b0bddd21161014b5780634b0bddd21461035d57806351221b621461037957806355954b49146103975780635a933e8e146103b3576101cf565b80633d4ef007146102dc57806345626bd61461030c578063496f9b0214610341576101cf565b806319d152fa116101ad57806319d152fa1461024057806323b872dd1461025e578063313ce5671461028e57806339509351146102ac576101cf565b806306fdde03146101d4578063095ea7b3146101f257806318160ddd14610222575b600080fd5b6101dc61061b565b6040516101e9919061252e565b60405180910390f35b61020c600480360381019061020791906125e9565b6106ad565b6040516102199190612644565b60405180910390f35b61022a6106d0565b604051610237919061266e565b60405180910390f35b6102486106da565b60405161025591906126e8565b60405180910390f35b61027860048036038101906102739190612703565b610700565b6040516102859190612644565b60405180910390f35b61029661072f565b6040516102a39190612772565b60405180910390f35b6102c660048036038101906102c191906125e9565b610738565b6040516102d39190612644565b60405180910390f35b6102f660048036038101906102f1919061278d565b61076f565b604051610303919061266e565b60405180910390f35b610326600480360381019061032191906125e9565b610787565b604051610338969594939291906127ba565b60405180910390f35b61035b6004803603810190610356919061281b565b6107dd565b005b61037760048036038101906103729190612874565b6108c5565b005b610381610928565b60405161038e919061266e565b60405180910390f35b6103b160048036038101906103ac91906125e9565b61092f565b005b6103cd60048036038101906103c8919061278d565b610b49565b6040516103da91906129fc565b60405180910390f35b6103eb610d1b565b6040516103f8919061266e565b60405180910390f35b61041b6004803603810190610416919061278d565b610d21565b604051610428919061266e565b60405180910390f35b610439610d69565b005b610455600480360381019061045091906125e9565b610d7d565b005b61045f611095565b60405161046c9190612a2d565b60405180910390f35b61047d6110bf565b60405161048a919061252e565b60405180910390f35b6104ad60048036038101906104a891906125e9565b611151565b6040516104ba9190612644565b60405180910390f35b6104dd60048036038101906104d891906125e9565b6111c8565b6040516104ea9190612644565b60405180910390f35b61050d6004803603810190610508919061281b565b6111eb565b005b610529600480360381019061052491906125e9565b6113b1565b604051610536919061266e565b60405180910390f35b610559600480360381019061055491906125e9565b611592565b604051610566919061266e565b60405180910390f35b610589600480360381019061058491906125e9565b61187b565b6040516105969190612ac3565b60405180910390f35b6105b960048036038101906105b4919061278d565b611933565b6040516105c6919061266e565b60405180910390f35b6105e960048036038101906105e49190612ade565b61197c565b6040516105f6919061266e565b60405180910390f35b6106196004803603810190610614919061278d565b611a03565b005b60606003805461062a90612b4d565b80601f016020809104026020016040519081016040528092919081815260200182805461065690612b4d565b80156106a35780601f10610678576101008083540402835291602001916106a3565b820191906000526020600020905b81548152906001019060200180831161068657829003601f168201915b5050505050905090565b6000806106b8611a86565b90506106c5818585611a8e565b600191505092915050565b6000600254905090565b600660009054906101000a900473ffffffffffffffffffffffffffffffffffffffff1681565b60008061070b611a86565b9050610718858285611c57565b610723858585611ce3565b60019150509392505050565b60006012905090565b600080610743611a86565b9050610764818585610755858961197c565b61075f9190612bad565b611a8e565b600191505092915050565b60086020528060005260406000206000915090505481565b6009602052816000526040600020602052806000526040600020600091509150508060000154908060010154908060020154908060030154908060040154908060050160009054906101000a900460ff16905086565b600760003373ffffffffffffffffffffffffffffffffffffffff1673ffffffffffffffffffffffffffffffffffffffff16815260200190815260200160002060009054906101000a900460ff16610869576040517f08c379a000000000000000000000000000000000000000000000000000000000815260040161086090612c2d565b60405180910390fd5b612710811115801561087c575060008110155b6108bb576040517f08c379a00000000000000000000000000000000000000000000000000000000081526004016108b290612c99565b60405180910390fd5b80600a8190555050565b6108cd611d7f565b80600760008473ffffffffffffffffffffffffffffffffffffffff1673ffffffffffffffffffffffffffffffffffffffff16815260200190815260200160002060006101000a81548160ff0219169083151502179055505050565b62278d0081565b600760003373ffffffffffffffffffffffffffffffffffffffff1673ffffffffffffffffffffffffffffffffffffffff16815260200190815260200160002060009054906101000a900460ff166109bb576040517f08c379a00000000000000000000000000000000000000000000000000000000081526004016109b290612c2d565b60405180910390fd5b6001600860008473ffffffffffffffffffffffffffffffffffffffff1673ffffffffffffffffffffffffffffffffffffffff1681526020019081526020016000206000828254610a0b9190612bad565b9250508190555060006040518060c001604052808381526020016000815260200142815260200162278d0042610a419190612bad565b815260200142815260200160001515815250905080600960008573ffffffffffffffffffffffffffffffffffffffff1673ffffffffffffffffffffffffffffffffffffffff1681526020019081526020016000206000600860008773ffffffffffffffffffffffffffffffffffffffff1673ffffffffffffffffffffffffffffffffffffffff168152602001908152602001600020548152602001908152602001600020600082015181600001556020820151816001015560408201518160020155606082015181600301556080820151816004015560a08201518160050160006101000a81548160ff021916908315150217905550905050610b448383611dfd565b505050565b60606000600860008473ffffffffffffffffffffffffffffffffffffffff1673ffffffffffffffffffffffffffffffffffffffff1681526020019081526020016000205467ffffffffffffffff811115610ba657610ba5612cb9565b5b604051908082528060200260200182016040528015610bdf57816020015b610bcc612466565b815260200190600190039081610bc45790505b50905060005b600860008573ffffffffffffffffffffffffffffffffffffffff1673ffffffffffffffffffffffffffffffffffffffff16815260200190815260200160002054811015610d1157600960008573ffffffffffffffffffffffffffffffffffffffff1673ffffffffffffffffffffffffffffffffffffffff1681526020019081526020016000206000600183610c7a9190612bad565b81526020019081526020016000206040518060c001604052908160008201548152602001600182015481526020016002820154815260200160038201548152602001600482015481526020016005820160009054906101000a900460ff161515151581525050828281518110610cf357610cf2612ce8565b5b60200260200101819052508080610d0990612d17565b915050610be5565b5080915050919050565b600a5481565b60008060008373ffffffffffffffffffffffffffffffffffffffff1673ffffffffffffffffffffffffffffffffffffffff168152602001908152602001600020549050919050565b610d71611d7f565b610d7b6000611f53565b565b6000600960008473ffffffffffffffffffffffffffffffffffffffff1673ffffffffffffffffffffffffffffffffffffffff168152602001908152602001600020600083815260200190815260200160002090506000816000015411610e18576040517f08c379a0000000000000000000000000000000000000000000000000000000008152600401610e0f90612dab565b60405180910390fd5b42816003015411610e5e576040517f08c379a0000000000000000000000000000000000000000000000000000000008152600401610e5590612e17565b60405180910390fd5b600015158160050160009054906101000a900460ff16151514610eb6576040517f08c379a0000000000000000000000000000000000000000000000000000000008152600401610ead90612e83565b60405180910390fd5b600081600101548260000154610ecc9190612ea3565b90506000612710600a5483610ee19190612ed7565b610eeb9190612f48565b9050600660009054906101000a900473ffffffffffffffffffffffffffffffffffffffff1673ffffffffffffffffffffffffffffffffffffffff166323b872dd3330846040518463ffffffff1660e01b8152600401610f4c93929190612f79565b6020604051808303816000875af1158015610f6b573d6000803e3d6000fd5b505050506040513d601f19601f82011682018060405250810190610f8f9190612fc5565b610fce576040517f08c379a0000000000000000000000000000000000000000000000000000000008152600401610fc59061303e565b60405180910390fd5b60018360050160006101000a81548160ff021916908315150217905550600660009054906101000a900473ffffffffffffffffffffffffffffffffffffffff1673ffffffffffffffffffffffffffffffffffffffff166323b872dd8630846040518463ffffffff1660e01b815260040161104a93929190612f79565b6020604051808303816000875af1158015611069573d6000803e3d6000fd5b505050506040513d601f19601f8201168201806040525081019061108d9190612fc5565b505050505050565b6000600560009054906101000a900473ffffffffffffffffffffffffffffffffffffffff16905090565b6060600480546110ce90612b4d565b80601f01602080910402602001604051908101604052809291908181526020018280546110fa90612b4d565b80156111475780601f1061111c57610100808354040283529160200191611147565b820191906000526020600020905b81548152906001019060200180831161112a57829003601f168201915b5050505050905090565b60008061115c611a86565b9050600061116a828661197c565b9050838110156111af576040517f08c379a00000000000000000000000000000000000000000000000000000000081526004016111a6906130d0565b60405180910390fd5b6111bc8286868403611a8e565b60019250505092915050565b6000806111d3611a86565b90506111e0818585611ce3565b600191505092915050565b60003390506000600960008373ffffffffffffffffffffffffffffffffffffffff1673ffffffffffffffffffffffffffffffffffffffff16815260200190815260200160002060008481526020019081526020016000209050600081600001541161128b576040517f08c379a000000000000000000000000000000000000000000000000000000000815260040161128290612dab565b60405180910390fd5b600061129783856113b1565b9050600081116112dc576040517f08c379a00000000000000000000000000000000000000000000000000000000081526004016112d39061313c565b60405180910390fd5b428260040181905550808260010160008282546112f99190612bad565b92505081905550600660009054906101000a900473ffffffffffffffffffffffffffffffffffffffff1673ffffffffffffffffffffffffffffffffffffffff1663a9059cbb84836040518363ffffffff1660e01b815260040161135d92919061315c565b6020604051808303816000875af115801561137c573d6000803e3d6000fd5b505050506040513d601f19601f820116820180604052508101906113a09190612fc5565b506113ab8382612019565b50505050565b600080600960008573ffffffffffffffffffffffffffffffffffffffff1673ffffffffffffffffffffffffffffffffffffffff16815260200190815260200160002060008481526020019081526020016000206000015411611448576040517f08c379a000000000000000000000000000000000000000000000000000000000815260040161143f90612dab565b60405180910390fd5b6000600960008573ffffffffffffffffffffffffffffffffffffffff1673ffffffffffffffffffffffffffffffffffffffff16815260200190815260200160002060008481526020019081526020016000206040518060c001604052908160008201548152602001600182015481526020016002820154815260200160038201548152602001600482015481526020016005820160009054906101000a900460ff161515151581525050905060008160a00151905060008161150d5762278d0061151e565b600262278d0061151d9190612f48565b5b90506000808460800151426115339190612ea3565b9050828186600001516115469190612ed7565b6115509190612f48565b9150846020015185600001516115669190612ea3565b82111561158457846020015185600001516115819190612ea3565b91505b819550505050505092915050565b600080600960008573ffffffffffffffffffffffffffffffffffffffff1673ffffffffffffffffffffffffffffffffffffffff16815260200190815260200160002060008481526020019081526020016000206000015411611629576040517f08c379a000000000000000000000000000000000000000000000000000000000815260040161162090612dab565b60405180910390fd5b42600960008573ffffffffffffffffffffffffffffffffffffffff1673ffffffffffffffffffffffffffffffffffffffff168152602001908152602001600020600084815260200190815260200160002060030154116116be576040517f08c379a00000000000000000000000000000000000000000000000000000000081526004016116b590612e17565b60405180910390fd5b60001515600960008573ffffffffffffffffffffffffffffffffffffffff1673ffffffffffffffffffffffffffffffffffffffff168152602001908152602001600020600084815260200190815260200160002060050160009054906101000a900460ff16151514611765576040517f08c379a000000000000000000000000000000000000000000000000000000000815260040161175c90612e83565b60405180910390fd5b6000600960008573ffffffffffffffffffffffffffffffffffffffff1673ffffffffffffffffffffffffffffffffffffffff16815260200190815260200160002060008481526020019081526020016000206040518060c001604052908160008201548152602001600182015481526020016002820154815260200160038201548152602001600482015481526020016005820160009054906101000a900460ff16151515158152505090506000612710600a5483600001516118289190612ed7565b6118329190612f48565b9050600062278d0083604001514261184a9190612ea3565b62278d006118589190612ea3565b836118639190612ed7565b61186d9190612f48565b905080935050505092915050565b611883612466565b600960008473ffffffffffffffffffffffffffffffffffffffff1673ffffffffffffffffffffffffffffffffffffffff16815260200190815260200160002060008381526020019081526020016000206040518060c001604052908160008201548152602001600182015481526020016002820154815260200160038201548152602001600482015481526020016005820160009054906101000a900460ff161515151581525050905092915050565b6000600860008373ffffffffffffffffffffffffffffffffffffffff1673ffffffffffffffffffffffffffffffffffffffff168152602001908152602001600020549050919050565b6000600160008473ffffffffffffffffffffffffffffffffffffffff1673ffffffffffffffffffffffffffffffffffffffff16815260200190815260200160002060008373ffffffffffffffffffffffffffffffffffffffff1673ffffffffffffffffffffffffffffffffffffffff16815260200190815260200160002054905092915050565b611a0b611d7f565b600073ffffffffffffffffffffffffffffffffffffffff168173ffffffffffffffffffffffffffffffffffffffff1603611a7a576040517f08c379a0000000000000000000000000000000000000000000000000000000008152600401611a71906131f7565b60405180910390fd5b611a8381611f53565b50565b600033905090565b600073ffffffffffffffffffffffffffffffffffffffff168373ffffffffffffffffffffffffffffffffffffffff1603611afd576040517f08c379a0000000000000000000000000000000000000000000000000000000008152600401611af490613289565b60405180910390fd5b600073ffffffffffffffffffffffffffffffffffffffff168273ffffffffffffffffffffffffffffffffffffffff1603611b6c576040517f08c379a0000000000000000000000000000000000000000000000000000000008152600401611b639061331b565b60405180910390fd5b80600160008573ffffffffffffffffffffffffffffffffffffffff1673ffffffffffffffffffffffffffffffffffffffff16815260200190815260200160002060008473ffffffffffffffffffffffffffffffffffffffff1673ffffffffffffffffffffffffffffffffffffffff168152602001908152602001600020819055508173ffffffffffffffffffffffffffffffffffffffff168373ffffffffffffffffffffffffffffffffffffffff167f8c5be1e5ebec7d5bd14f71427d1e84f3dd0314c0f7b2291e5b200ac8c7c3b92583604051611c4a919061266e565b60405180910390a3505050565b6000611c63848461197c565b90507fffffffffffffffffffffffffffffffffffffffffffffffffffffffffffffffff8114611cdd5781811015611ccf576040517f08c379a0000000000000000000000000000000000000000000000000000000008152600401611cc690613387565b60405180910390fd5b611cdc8484848403611a8e565b5b50505050565b600760003373ffffffffffffffffffffffffffffffffffffffff1673ffffffffffffffffffffffffffffffffffffffff16815260200190815260200160002060009054906101000a900460ff16611d6f576040517f08c379a0000000000000000000000000000000000000000000000000000000008152600401611d6690613419565b60405180910390fd5b611d7a8383836121e6565b505050565b611d87611a86565b73ffffffffffffffffffffffffffffffffffffffff16611da5611095565b73ffffffffffffffffffffffffffffffffffffffff1614611dfb576040517f08c379a0000000000000000000000000000000000000000000000000000000008152600401611df290613485565b60405180910390fd5b565b600073ffffffffffffffffffffffffffffffffffffffff168273ffffffffffffffffffffffffffffffffffffffff1603611e6c576040517f08c379a0000000000000000000000000000000000000000000000000000000008152600401611e63906134f1565b60405180910390fd5b611e786000838361245c565b8060026000828254611e8a9190612bad565b92505081905550806000808473ffffffffffffffffffffffffffffffffffffffff1673ffffffffffffffffffffffffffffffffffffffff168152602001908152602001600020600082825401925050819055508173ffffffffffffffffffffffffffffffffffffffff16600073ffffffffffffffffffffffffffffffffffffffff167fddf252ad1be2c89b69c2b068fc378daa952ba7f163c4a11628f55a4df523b3ef83604051611f3b919061266e565b60405180910390a3611f4f60008383612461565b5050565b6000600560009054906101000a900473ffffffffffffffffffffffffffffffffffffffff16905081600560006101000a81548173ffffffffffffffffffffffffffffffffffffffff021916908373ffffffffffffffffffffffffffffffffffffffff1602179055508173ffffffffffffffffffffffffffffffffffffffff168173ffffffffffffffffffffffffffffffffffffffff167f8be0079c531659141344cd1fd0a4f28419497f9722a3daafe3b4186f6b6457e060405160405180910390a35050565b600073ffffffffffffffffffffffffffffffffffffffff168273ffffffffffffffffffffffffffffffffffffffff1603612088576040517f08c379a000000000000000000000000000000000000000000000000000000000815260040161207f90613583565b60405180910390fd5b6120948260008361245c565b60008060008473ffffffffffffffffffffffffffffffffffffffff1673ffffffffffffffffffffffffffffffffffffffff1681526020019081526020016000205490508181101561211a576040517f08c379a000000000000000000000000000000000000000000000000000000000815260040161211190613615565b60405180910390fd5b8181036000808573ffffffffffffffffffffffffffffffffffffffff1673ffffffffffffffffffffffffffffffffffffffff1681526020019081526020016000208190555081600260008282540392505081905550600073ffffffffffffffffffffffffffffffffffffffff168373ffffffffffffffffffffffffffffffffffffffff167fddf252ad1be2c89b69c2b068fc378daa952ba7f163c4a11628f55a4df523b3ef846040516121cd919061266e565b60405180910390a36121e183600084612461565b505050565b600073ffffffffffffffffffffffffffffffffffffffff168373ffffffffffffffffffffffffffffffffffffffff1603612255576040517f08c379a000000000000000000000000000000000000000000000000000000000815260040161224c906136a7565b60405180910390fd5b600073ffffffffffffffffffffffffffffffffffffffff168273ffffffffffffffffffffffffffffffffffffffff16036122c4576040517f08c379a00000000000000000000000000000000000000000000000000000000081526004016122bb90613739565b60405180910390fd5b6122cf83838361245c565b60008060008573ffffffffffffffffffffffffffffffffffffffff1673ffffffffffffffffffffffffffffffffffffffff16815260200190815260200160002054905081811015612355576040517f08c379a000000000000000000000000000000000000000000000000000000000815260040161234c906137cb565b60405180910390fd5b8181036000808673ffffffffffffffffffffffffffffffffffffffff1673ffffffffffffffffffffffffffffffffffffffff16815260200190815260200160002081905550816000808573ffffffffffffffffffffffffffffffffffffffff1673ffffffffffffffffffffffffffffffffffffffff168152602001908152602001600020600082825401925050819055508273ffffffffffffffffffffffffffffffffffffffff168473ffffffffffffffffffffffffffffffffffffffff167fddf252ad1be2c89b69c2b068fc378daa952ba7f163c4a11628f55a4df523b3ef84604051612443919061266e565b60405180910390a3612456848484612461565b50505050565b505050565b505050565b6040518060c0016040528060008152602001600081526020016000815260200160008152602001600081526020016000151581525090565b600081519050919050565b600082825260208201905092915050565b60005b838110156124d85780820151818401526020810190506124bd565b60008484015250505050565b6000601f19601f8301169050919050565b60006125008261249e565b61250a81856124a9565b935061251a8185602086016124ba565b612523816124e4565b840191505092915050565b6000602082019050818103600083015261254881846124f5565b905092915050565b600080fd5b600073ffffffffffffffffffffffffffffffffffffffff82169050919050565b600061258082612555565b9050919050565b61259081612575565b811461259b57600080fd5b50565b6000813590506125ad81612587565b92915050565b6000819050919050565b6125c6816125b3565b81146125d157600080fd5b50565b6000813590506125e3816125bd565b92915050565b60008060408385031215612600576125ff612550565b5b600061260e8582860161259e565b925050602061261f858286016125d4565b9150509250929050565b60008115159050919050565b61263e81612629565b82525050565b60006020820190506126596000830184612635565b92915050565b612668816125b3565b82525050565b6000602082019050612683600083018461265f565b92915050565b6000819050919050565b60006126ae6126a96126a484612555565b612689565b612555565b9050919050565b60006126c082612693565b9050919050565b60006126d2826126b5565b9050919050565b6126e2816126c7565b82525050565b60006020820190506126fd60008301846126d9565b92915050565b60008060006060848603121561271c5761271b612550565b5b600061272a8682870161259e565b935050602061273b8682870161259e565b925050604061274c868287016125d4565b9150509250925092565b600060ff82169050919050565b61276c81612756565b82525050565b60006020820190506127876000830184612763565b92915050565b6000602082840312156127a3576127a2612550565b5b60006127b18482850161259e565b91505092915050565b600060c0820190506127cf600083018961265f565b6127dc602083018861265f565b6127e9604083018761265f565b6127f6606083018661265f565b612803608083018561265f565b61281060a0830184612635565b979650505050505050565b60006020828403121561283157612830612550565b5b600061283f848285016125d4565b91505092915050565b61285181612629565b811461285c57600080fd5b50565b60008135905061286e81612848565b92915050565b6000806040838503121561288b5761288a612550565b5b60006128998582860161259e565b92505060206128aa8582860161285f565b9150509250929050565b600081519050919050565b600082825260208201905092915050565b6000819050602082019050919050565b6128e9816125b3565b82525050565b6128f881612629565b82525050565b60c08201600082015161291460008501826128e0565b50602082015161292760208501826128e0565b50604082015161293a60408501826128e0565b50606082015161294d60608501826128e0565b50608082015161296060808501826128e0565b5060a082015161297360a08501826128ef565b50505050565b600061298583836128fe565b60c08301905092915050565b6000602082019050919050565b60006129a9826128b4565b6129b381856128bf565b93506129be836128d0565b8060005b838110156129ef5781516129d68882612979565b97506129e183612991565b9250506001810190506129c2565b5085935050505092915050565b60006020820190508181036000830152612a16818461299e565b905092915050565b612a2781612575565b82525050565b6000602082019050612a426000830184612a1e565b92915050565b60c082016000820151612a5e60008501826128e0565b506020820151612a7160208501826128e0565b506040820151612a8460408501826128e0565b506060820151612a9760608501826128e0565b506080820151612aaa60808501826128e0565b5060a0820151612abd60a08501826128ef565b50505050565b600060c082019050612ad86000830184612a48565b92915050565b60008060408385031215612af557612af4612550565b5b6000612b038582860161259e565b9250506020612b148582860161259e565b9150509250929050565b7f4e487b7100000000000000000000000000000000000000000000000000000000600052602260045260246000fd5b60006002820490506001821680612b6557607f821691505b602082108103612b7857612b77612b1e565b5b50919050565b7f4e487b7100000000000000000000000000000000000000000000000000000000600052601160045260246000fd5b6000612bb8826125b3565b9150612bc3836125b3565b9250828201905080821115612bdb57612bda612b7e565b5b92915050565b7f4e6f7420417574686f72697a6564204d696e7465727300000000000000000000600082015250565b6000612c176016836124a9565b9150612c2282612be1565b602082019050919050565b60006020820190508181036000830152612c4681612c0a565b9050919050565b7f496e76616c69642050657263656e746167650000000000000000000000000000600082015250565b6000612c836012836124a9565b9150612c8e82612c4d565b602082019050919050565b60006020820190508181036000830152612cb281612c76565b9050919050565b7f4e487b7100000000000000000000000000000000000000000000000000000000600052604160045260246000fd5b7f4e487b7100000000000000000000000000000000000000000000000000000000600052603260045260246000fd5b6000612d22826125b3565b91507fffffffffffffffffffffffffffffffffffffffffffffffffffffffffffffffff8203612d5457612d53612b7e565b5b600182019050919050565b7f56657374696e67206e6f7420666f756e64000000000000000000000000000000600082015250565b6000612d956011836124a9565b9150612da082612d5f565b602082019050919050565b60006020820190508181036000830152612dc481612d88565b9050919050565b7f56657374696e6720616c726561647920656e6465640000000000000000000000600082015250565b6000612e016015836124a9565b9150612e0c82612dcb565b602082019050919050565b60006020820190508181036000830152612e3081612df4565b9050919050565b7f46617374207061737320616c7265616479207573656400000000000000000000600082015250565b6000612e6d6016836124a9565b9150612e7882612e37565b602082019050919050565b60006020820190508181036000830152612e9c81612e60565b9050919050565b6000612eae826125b3565b9150612eb9836125b3565b9250828203905081811115612ed157612ed0612b7e565b5b92915050565b6000612ee2826125b3565b9150612eed836125b3565b9250828202612efb816125b3565b91508282048414831517612f1257612f11612b7e565b5b5092915050565b7f4e487b7100000000000000000000000000000000000000000000000000000000600052601260045260246000fd5b6000612f53826125b3565b9150612f5e836125b3565b925082612f6e57612f6d612f19565b5b828204905092915050565b6000606082019050612f8e6000830186612a1e565b612f9b6020830185612a1e565b612fa8604083018461265f565b949350505050565b600081519050612fbf81612848565b92915050565b600060208284031215612fdb57612fda612550565b5b6000612fe984828501612fb0565b91505092915050565b7f466173742070617373207072696365207472616e73666572206661696c656400600082015250565b6000613028601f836124a9565b915061303382612ff2565b602082019050919050565b600060208201905081810360008301526130578161301b565b9050919050565b7f45524332303a2064656372656173656420616c6c6f77616e63652062656c6f7760008201527f207a65726f000000000000000000000000000000000000000000000000000000602082015250565b60006130ba6025836124a9565b91506130c58261305e565b604082019050919050565b600060208201905081810360008301526130e9816130ad565b9050919050565b7f4e6f7468696e6720746f20636c61696d00000000000000000000000000000000600082015250565b60006131266010836124a9565b9150613131826130f0565b602082019050919050565b6000602082019050818103600083015261315581613119565b9050919050565b60006040820190506131716000830185612a1e565b61317e602083018461265f565b9392505050565b7f4f776e61626c653a206e6577206f776e657220697320746865207a65726f206160008201527f6464726573730000000000000000000000000000000000000000000000000000602082015250565b60006131e16026836124a9565b91506131ec82613185565b604082019050919050565b60006020820190508181036000830152613210816131d4565b9050919050565b7f45524332303a20617070726f76652066726f6d20746865207a65726f2061646460008201527f7265737300000000000000000000000000000000000000000000000000000000602082015250565b60006132736024836124a9565b915061327e82613217565b604082019050919050565b600060208201905081810360008301526132a281613266565b9050919050565b7f45524332303a20617070726f766520746f20746865207a65726f20616464726560008201527f7373000000000000000000000000000000000000000000000000000000000000602082015250565b60006133056022836124a9565b9150613310826132a9565b604082019050919050565b60006020820190508181036000830152613334816132f8565b9050919050565b7f45524332303a20696e73756666696369656e7420616c6c6f77616e6365000000600082015250565b6000613371601d836124a9565b915061337c8261333b565b602082019050919050565b600060208201905081810360008301526133a081613364565b9050919050565b7f4e6f7420417574686f72697a6564204d696e74657273204265666f726520546f60008201527f6b656e205472616e736665720000000000000000000000000000000000000000602082015250565b6000613403602c836124a9565b915061340e826133a7565b604082019050919050565b60006020820190508181036000830152613432816133f6565b9050919050565b7f4f776e61626c653a2063616c6c6572206973206e6f7420746865206f776e6572600082015250565b600061346f6020836124a9565b915061347a82613439565b602082019050919050565b6000602082019050818103600083015261349e81613462565b9050919050565b7f45524332303a206d696e7420746f20746865207a65726f206164647265737300600082015250565b60006134db601f836124a9565b91506134e6826134a5565b602082019050919050565b6000602082019050818103600083015261350a816134ce565b9050919050565b7f45524332303a206275726e2066726f6d20746865207a65726f2061646472657360008201527f7300000000000000000000000000000000000000000000000000000000000000602082015250565b600061356d6021836124a9565b915061357882613511565b604082019050919050565b6000602082019050818103600083015261359c81613560565b9050919050565b7f45524332303a206275726e20616d6f756e7420657863656564732062616c616e60008201527f6365000000000000000000000000000000000000000000000000000000000000602082015250565b60006135ff6022836124a9565b915061360a826135a3565b604082019050919050565b6000602082019050818103600083015261362e816135f2565b9050919050565b7f45524332303a207472616e736665722066726f6d20746865207a65726f20616460008201527f6472657373000000000000000000000000000000000000000000000000000000602082015250565b60006136916025836124a9565b915061369c82613635565b604082019050919050565b600060208201905081810360008301526136c081613684565b9050919050565b7f45524332303a207472616e7366657220746f20746865207a65726f206164647260008201527f6573730000000000000000000000000000000000000000000000000000000000602082015250565b60006137236023836124a9565b915061372e826136c7565b604082019050919050565b6000602082019050818103600083015261375281613716565b9050919050565b7f45524332303a207472616e7366657220616d6f756e742065786365656473206260008201527f616c616e63650000000000000000000000000000000000000000000000000000602082015250565b60006137b56026836124a9565b91506137c082613759565b604082019050919050565b600060208201905081810360008301526137e4816137a8565b905091905056fea264697066735822122038e3245319fd36c56d169baaa209587632f9d9a668edb2dc0ba9bcc487f336b264736f6c63430008120033",
  "linkReferences": {},
  "deployedLinkReferences": {}
}