{
  "_format": "hh-sol-artifact-1",
  "contractName": "TokenContract",
  "sourceName": "contracts/token.sol",
  "abi": [
    {
      "inputs": [
        {
          "internalType": "uint256",
          "name": "initialSupply",
          "type": "uint256"
        },
        {
          "internalType": "string",
          "name": "name",
          "type": "string"
        },
        {
          "internalType": "string",
          "name": "symbol",
          "type": "string"
        }
      ],
      "stateMutability": "nonpayable",
      "type": "constructor"
    },
    {
      "anonymous": false,
      "inputs": [
        {
          "indexed": true,
          "internalType": "address",
          "name": "owner",
          "type": "address"
        },
        {
          "indexed": true,
          "internalType": "address",
          "name": "spender",
          "type": "address"
        },
        {
          "indexed": false,
          "internalType": "uint256",
          "name": "value",
          "type": "uint256"
        }
      ],
      "name": "Approval",
      "type": "event"
    },
    {
      "anonymous": false,
      "inputs": [
        {
          "indexed": true,
          "internalType": "address",
          "name": "from",
          "type": "address"
        },
        {
          "indexed": true,
          "internalType": "address",
          "name": "to",
          "type": "address"
        },
        {
          "indexed": false,
          "internalType": "uint256",
          "name": "value",
          "type": "uint256"
        }
      ],
      "name": "Transfer",
      "type": "event"
    },
    {
      "inputs": [
        {
          "internalType": "address",
          "name": "owner",
          "type": "address"
        },
        {
          "internalType": "address",
          "name": "spender",
          "type": "address"
        }
      ],
      "name": "allowance",
      "outputs": [
        {
          "internalType": "uint256",
          "name": "",
          "type": "uint256"
        }
      ],
      "stateMutability": "view",
      "type": "function"
    },
    {
      "inputs": [
        {
          "internalType": "address",
          "name": "spender",
          "type": "address"
        },
        {
          "internalType": "uint256",
          "name": "amount",
          "type": "uint256"
        }
      ],
      "name": "approve",
      "outputs": [
        {
          "internalType": "bool",
          "name": "",
          "type": "bool"
        }
      ],
      "stateMutability": "nonpayable",
      "type": "function"
    },
    {
      "inputs": [
        {
          "internalType": "address",
          "name": "account",
          "type": "address"
        }
      ],
      "name": "balanceOf",
      "outputs": [
        {
          "internalType": "uint256",
          "name": "",
          "type": "uint256"
        }
      ],
      "stateMutability": "view",
      "type": "function"
    },
    {
      "inputs": [],
      "name": "decimals",
      "outputs": [
        {
          "internalType": "uint8",
          "name": "",
          "type": "uint8"
        }
      ],
      "stateMutability": "view",
      "type": "function"
    },
    {
      "inputs": [
        {
          "internalType": "address",
          "name": "spender",
          "type": "address"
        },
        {
          "internalType": "uint256",
          "name": "subtractedValue",
          "type": "uint256"
        }
      ],
      "name": "decreaseAllowance",
      "outputs": [
        {
          "internalType": "bool",
          "name": "",
          "type": "bool"
        }
      ],
      "stateMutability": "nonpayable",
      "type": "function"
    },
    {
      "inputs": [
        {
          "internalType": "address",
          "name": "spender",
          "type": "address"
        },
        {
          "internalType": "uint256",
          "name": "addedValue",
          "type": "uint256"
        }
      ],
      "name": "increaseAllowance",
      "outputs": [
        {
          "internalType": "bool",
          "name": "",
          "type": "bool"
        }
      ],
      "stateMutability": "nonpayable",
      "type": "function"
    },
    {
      "inputs": [],
      "name": "mint_10m",
      "outputs": [],
      "stateMutability": "nonpayable",
      "type": "function"
    },
    {
      "inputs": [],
      "name": "mint_1k",
      "outputs": [],
      "stateMutability": "nonpayable",
      "type": "function"
    },
    {
      "inputs": [],
      "name": "name",
      "outputs": [
        {
          "internalType": "string",
          "name": "",
          "type": "string"
        }
      ],
      "stateMutability": "view",
      "type": "function"
    },
    {
      "inputs": [],
      "name": "symbol",
      "outputs": [
        {
          "internalType": "string",
          "name": "",
          "type": "string"
        }
      ],
      "stateMutability": "view",
      "type": "function"
    },
    {
      "inputs": [],
      "name": "totalSupply",
      "outputs": [
        {
          "internalType": "uint256",
          "name": "",
          "type": "uint256"
        }
      ],
      "stateMutability": "view",
      "type": "function"
    },
    {
      "inputs": [
        {
          "internalType": "address",
          "name": "to",
          "type": "address"
        },
        {
          "internalType": "uint256",
          "name": "amount",
          "type": "uint256"
        }
      ],
      "name": "transfer",
      "outputs": [
        {
          "internalType": "bool",
          "name": "",
          "type": "bool"
        }
      ],
      "stateMutability": "nonpayable",
      "type": "function"
    },
    {
      "inputs": [
        {
          "internalType": "address",
          "name": "from",
          "type": "address"
        },
        {
          "internalType": "address",
          "name": "to",
          "type": "address"
        },
        {
          "internalType": "uint256",
          "name": "amount",
          "type": "uint256"
        }
      ],
      "name": "transferFrom",
      "outputs": [
        {
          "internalType": "bool",
          "name": "",
          "type": "bool"
        }
      ],
      "stateMutability": "nonpayable",
      "type": "function"
    }
  ],
  "bytecode": "0x60806040523480156200001157600080fd5b506040516200211c3803806200211c8339818101604052810190620000379190620003f5565b818181600390816200004a9190620006d0565b5080600490816200005c9190620006d0565b5050506200009e3362000074620000a760201b60201c565b60ff16600a6200008591906200093a565b856200009291906200098b565b620000b060201b60201c565b50505062000ac2565b60006012905090565b600073ffffffffffffffffffffffffffffffffffffffff168273ffffffffffffffffffffffffffffffffffffffff160362000122576040517f08c379a0000000000000000000000000000000000000000000000000000000008152600401620001199062000a37565b60405180910390fd5b62000136600083836200021d60201b60201c565b80600260008282546200014a919062000a59565b92505081905550806000808473ffffffffffffffffffffffffffffffffffffffff1673ffffffffffffffffffffffffffffffffffffffff168152602001908152602001600020600082825401925050819055508173ffffffffffffffffffffffffffffffffffffffff16600073ffffffffffffffffffffffffffffffffffffffff167fddf252ad1be2c89b69c2b068fc378daa952ba7f163c4a11628f55a4df523b3ef83604051620001fd919062000aa5565b60405180910390a362000219600083836200022260201b60201c565b5050565b505050565b505050565b6000604051905090565b600080fd5b600080fd5b6000819050919050565b62000250816200023b565b81146200025c57600080fd5b50565b600081519050620002708162000245565b92915050565b600080fd5b600080fd5b6000601f19601f8301169050919050565b7f4e487b7100000000000000000000000000000000000000000000000000000000600052604160045260246000fd5b620002cb8262000280565b810181811067ffffffffffffffff82111715620002ed57620002ec62000291565b5b80604052505050565b60006200030262000227565b9050620003108282620002c0565b919050565b600067ffffffffffffffff82111562000333576200033262000291565b5b6200033e8262000280565b9050602081019050919050565b60005b838110156200036b5780820151818401526020810190506200034e565b60008484015250505050565b60006200038e620003888462000315565b620002f6565b905082815260208101848484011115620003ad57620003ac6200027b565b5b620003ba8482856200034b565b509392505050565b600082601f830112620003da57620003d962000276565b5b8151620003ec84826020860162000377565b91505092915050565b60008060006060848603121562000411576200041062000231565b5b600062000421868287016200025f565b935050602084015167ffffffffffffffff81111562000445576200044462000236565b5b6200045386828701620003c2565b925050604084015167ffffffffffffffff81111562000477576200047662000236565b5b6200048586828701620003c2565b9150509250925092565b600081519050919050565b7f4e487b7100000000000000000000000000000000000000000000000000000000600052602260045260246000fd5b60006002820490506001821680620004e257607f821691505b602082108103620004f857620004f76200049a565b5b50919050565b60008190508160005260206000209050919050565b60006020601f8301049050919050565b600082821b905092915050565b600060088302620005627fffffffffffffffffffffffffffffffffffffffffffffffffffffffffffffffff8262000523565b6200056e868362000523565b95508019841693508086168417925050509392505050565b6000819050919050565b6000620005b1620005ab620005a5846200023b565b62000586565b6200023b565b9050919050565b6000819050919050565b620005cd8362000590565b620005e5620005dc82620005b8565b84845462000530565b825550505050565b600090565b620005fc620005ed565b62000609818484620005c2565b505050565b5b81811015620006315762000625600082620005f2565b6001810190506200060f565b5050565b601f82111562000680576200064a81620004fe565b620006558462000513565b8101602085101562000665578190505b6200067d620006748562000513565b8301826200060e565b50505b505050565b600082821c905092915050565b6000620006a56000198460080262000685565b1980831691505092915050565b6000620006c0838362000692565b9150826002028217905092915050565b620006db826200048f565b67ffffffffffffffff811115620006f757620006f662000291565b5b620007038254620004c9565b6200071082828562000635565b600060209050601f83116001811462000748576000841562000733578287015190505b6200073f8582620006b2565b865550620007af565b601f1984166200075886620004fe565b60005b8281101562000782578489015182556001820191506020850194506020810190506200075b565b86831015620007a257848901516200079e601f89168262000692565b8355505b6001600288020188555050505b505050505050565b7f4e487b7100000000000000000000000000000000000000000000000000000000600052601160045260246000fd5b60008160011c9050919050565b6000808291508390505b600185111562000845578086048111156200081d576200081c620007b7565b5b60018516156200082d5780820291505b80810290506200083d85620007e6565b9450620007fd565b94509492505050565b60008262000860576001905062000933565b8162000870576000905062000933565b81600181146200088957600281146200089457620008ca565b600191505062000933565b60ff841115620008a957620008a8620007b7565b5b8360020a915084821115620008c357620008c2620007b7565b5b5062000933565b5060208310610133831016604e8410600b8410161715620009045782820a905083811115620008fe57620008fd620007b7565b5b62000933565b620009138484846001620007f3565b925090508184048111156200092d576200092c620007b7565b5b81810290505b9392505050565b600062000947826200023b565b915062000954836200023b565b9250620009837fffffffffffffffffffffffffffffffffffffffffffffffffffffffffffffffff84846200084e565b905092915050565b600062000998826200023b565b9150620009a5836200023b565b9250828202620009b5816200023b565b91508282048414831517620009cf57620009ce620007b7565b5b5092915050565b600082825260208201905092915050565b7f45524332303a206d696e7420746f20746865207a65726f206164647265737300600082015250565b600062000a1f601f83620009d6565b915062000a2c82620009e7565b602082019050919050565b6000602082019050818103600083015262000a528162000a10565b9050919050565b600062000a66826200023b565b915062000a73836200023b565b925082820190508082111562000a8e5762000a8d620007b7565b5b92915050565b62000a9f816200023b565b82525050565b600060208201905062000abc600083018462000a94565b92915050565b61164a8062000ad26000396000f3fe608060405234801561001057600080fd5b50600436106100cf5760003560e01c80636f2ec0301161008c57806395d89b411161006657806395d89b4114610202578063a457c2d714610220578063a9059cbb14610250578063dd62ed3e14610280576100cf565b80636f2ec030146101be57806370a08231146101c857806392192a1f146101f8576100cf565b806306fdde03146100d4578063095ea7b3146100f257806318160ddd1461012257806323b872dd14610140578063313ce56714610170578063395093511461018e575b600080fd5b6100dc6102b0565b6040516100e99190610cfb565b60405180910390f35b61010c60048036038101906101079190610db6565b610342565b6040516101199190610e11565b60405180910390f35b61012a610365565b6040516101379190610e3b565b60405180910390f35b61015a60048036038101906101559190610e56565b61036f565b6040516101679190610e11565b60405180910390f35b61017861039e565b6040516101859190610ec5565b60405180910390f35b6101a860048036038101906101a39190610db6565b6103a7565b6040516101b59190610e11565b60405180910390f35b6101c66103de565b005b6101e260048036038101906101dd9190610ee0565b61040e565b6040516101ef9190610e3b565b60405180910390f35b610200610456565b005b61020a610485565b6040516102179190610cfb565b60405180910390f35b61023a60048036038101906102359190610db6565b610517565b6040516102479190610e11565b60405180910390f35b61026a60048036038101906102659190610db6565b61058e565b6040516102779190610e11565b60405180910390f35b61029a60048036038101906102959190610f0d565b6105b1565b6040516102a79190610e3b565b60405180910390f35b6060600380546102bf90610f7c565b80601f01602080910402602001604051908101604052809291908181526020018280546102eb90610f7c565b80156103385780601f1061030d57610100808354040283529160200191610338565b820191906000526020600020905b81548152906001019060200180831161031b57829003601f168201915b5050505050905090565b60008061034d610638565b905061035a818585610640565b600191505092915050565b6000600254905090565b60008061037a610638565b9050610387858285610809565b610392858585610895565b60019150509392505050565b60006012905090565b6000806103b2610638565b90506103d38185856103c485896105b1565b6103ce9190610fdc565b610640565b600191505092915050565b61040c336103ea61039e565b60ff16600a6103f99190611143565b62989680610407919061118e565b610b0b565b565b60008060008373ffffffffffffffffffffffffffffffffffffffff1673ffffffffffffffffffffffffffffffffffffffff168152602001908152602001600020549050919050565b6104833361046261039e565b60ff16600a6104719190611143565b6103e861047e919061118e565b610b0b565b565b60606004805461049490610f7c565b80601f01602080910402602001604051908101604052809291908181526020018280546104c090610f7c565b801561050d5780601f106104e25761010080835404028352916020019161050d565b820191906000526020600020905b8154815290600101906020018083116104f057829003601f168201915b5050505050905090565b600080610522610638565b9050600061053082866105b1565b905083811015610575576040517f08c379a000000000000000000000000000000000000000000000000000000000815260040161056c90611242565b60405180910390fd5b6105828286868403610640565b60019250505092915050565b600080610599610638565b90506105a6818585610895565b600191505092915050565b6000600160008473ffffffffffffffffffffffffffffffffffffffff1673ffffffffffffffffffffffffffffffffffffffff16815260200190815260200160002060008373ffffffffffffffffffffffffffffffffffffffff1673ffffffffffffffffffffffffffffffffffffffff16815260200190815260200160002054905092915050565b600033905090565b600073ffffffffffffffffffffffffffffffffffffffff168373ffffffffffffffffffffffffffffffffffffffff16036106af576040517f08c379a00000000000000000000000000000000000000000000000000000000081526004016106a6906112d4565b60405180910390fd5b600073ffffffffffffffffffffffffffffffffffffffff168273ffffffffffffffffffffffffffffffffffffffff160361071e576040517f08c379a000000000000000000000000000000000000000000000000000000000815260040161071590611366565b60405180910390fd5b80600160008573ffffffffffffffffffffffffffffffffffffffff1673ffffffffffffffffffffffffffffffffffffffff16815260200190815260200160002060008473ffffffffffffffffffffffffffffffffffffffff1673ffffffffffffffffffffffffffffffffffffffff168152602001908152602001600020819055508173ffffffffffffffffffffffffffffffffffffffff168373ffffffffffffffffffffffffffffffffffffffff167f8c5be1e5ebec7d5bd14f71427d1e84f3dd0314c0f7b2291e5b200ac8c7c3b925836040516107fc9190610e3b565b60405180910390a3505050565b600061081584846105b1565b90507fffffffffffffffffffffffffffffffffffffffffffffffffffffffffffffffff811461088f5781811015610881576040517f08c379a0000000000000000000000000000000000000000000000000000000008152600401610878906113d2565b60405180910390fd5b61088e8484848403610640565b5b50505050565b600073ffffffffffffffffffffffffffffffffffffffff168373ffffffffffffffffffffffffffffffffffffffff1603610904576040517f08c379a00000000000000000000000000000000000000000000000000000000081526004016108fb90611464565b60405180910390fd5b600073ffffffffffffffffffffffffffffffffffffffff168273ffffffffffffffffffffffffffffffffffffffff1603610973576040517f08c379a000000000000000000000000000000000000000000000000000000000815260040161096a906114f6565b60405180910390fd5b61097e838383610c61565b60008060008573ffffffffffffffffffffffffffffffffffffffff1673ffffffffffffffffffffffffffffffffffffffff16815260200190815260200160002054905081811015610a04576040517f08c379a00000000000000000000000000000000000000000000000000000000081526004016109fb90611588565b60405180910390fd5b8181036000808673ffffffffffffffffffffffffffffffffffffffff1673ffffffffffffffffffffffffffffffffffffffff16815260200190815260200160002081905550816000808573ffffffffffffffffffffffffffffffffffffffff1673ffffffffffffffffffffffffffffffffffffffff168152602001908152602001600020600082825401925050819055508273ffffffffffffffffffffffffffffffffffffffff168473ffffffffffffffffffffffffffffffffffffffff167fddf252ad1be2c89b69c2b068fc378daa952ba7f163c4a11628f55a4df523b3ef84604051610af29190610e3b565b60405180910390a3610b05848484610c66565b50505050565b600073ffffffffffffffffffffffffffffffffffffffff168273ffffffffffffffffffffffffffffffffffffffff1603610b7a576040517f08c379a0000000000000000000000000000000000000000000000000000000008152600401610b71906115f4565b60405180910390fd5b610b8660008383610c61565b8060026000828254610b989190610fdc565b92505081905550806000808473ffffffffffffffffffffffffffffffffffffffff1673ffffffffffffffffffffffffffffffffffffffff168152602001908152602001600020600082825401925050819055508173ffffffffffffffffffffffffffffffffffffffff16600073ffffffffffffffffffffffffffffffffffffffff167fddf252ad1be2c89b69c2b068fc378daa952ba7f163c4a11628f55a4df523b3ef83604051610c499190610e3b565b60405180910390a3610c5d60008383610c66565b5050565b505050565b505050565b600081519050919050565b600082825260208201905092915050565b60005b83811015610ca5578082015181840152602081019050610c8a565b60008484015250505050565b6000601f19601f8301169050919050565b6000610ccd82610c6b565b610cd78185610c76565b9350610ce7818560208601610c87565b610cf081610cb1565b840191505092915050565b60006020820190508181036000830152610d158184610cc2565b905092915050565b600080fd5b600073ffffffffffffffffffffffffffffffffffffffff82169050919050565b6000610d4d82610d22565b9050919050565b610d5d81610d42565b8114610d6857600080fd5b50565b600081359050610d7a81610d54565b92915050565b6000819050919050565b610d9381610d80565b8114610d9e57600080fd5b50565b600081359050610db081610d8a565b92915050565b60008060408385031215610dcd57610dcc610d1d565b5b6000610ddb85828601610d6b565b9250506020610dec85828601610da1565b9150509250929050565b60008115159050919050565b610e0b81610df6565b82525050565b6000602082019050610e266000830184610e02565b92915050565b610e3581610d80565b82525050565b6000602082019050610e506000830184610e2c565b92915050565b600080600060608486031215610e6f57610e6e610d1d565b5b6000610e7d86828701610d6b565b9350506020610e8e86828701610d6b565b9250506040610e9f86828701610da1565b9150509250925092565b600060ff82169050919050565b610ebf81610ea9565b82525050565b6000602082019050610eda6000830184610eb6565b92915050565b600060208284031215610ef657610ef5610d1d565b5b6000610f0484828501610d6b565b91505092915050565b60008060408385031215610f2457610f23610d1d565b5b6000610f3285828601610d6b565b9250506020610f4385828601610d6b565b9150509250929050565b7f4e487b7100000000000000000000000000000000000000000000000000000000600052602260045260246000fd5b60006002820490506001821680610f9457607f821691505b602082108103610fa757610fa6610f4d565b5b50919050565b7f4e487b7100000000000000000000000000000000000000000000000000000000600052601160045260246000fd5b6000610fe782610d80565b9150610ff283610d80565b925082820190508082111561100a57611009610fad565b5b92915050565b60008160011c9050919050565b6000808291508390505b60018511156110675780860481111561104357611042610fad565b5b60018516156110525780820291505b808102905061106085611010565b9450611027565b94509492505050565b600082611080576001905061113c565b8161108e576000905061113c565b81600181146110a457600281146110ae576110dd565b600191505061113c565b60ff8411156110c0576110bf610fad565b5b8360020a9150848211156110d7576110d6610fad565b5b5061113c565b5060208310610133831016604e8410600b84101617156111125782820a90508381111561110d5761110c610fad565b5b61113c565b61111f848484600161101d565b9250905081840481111561113657611135610fad565b5b81810290505b9392505050565b600061114e82610d80565b915061115983610d80565b92506111867fffffffffffffffffffffffffffffffffffffffffffffffffffffffffffffffff8484611070565b905092915050565b600061119982610d80565b91506111a483610d80565b92508282026111b281610d80565b915082820484148315176111c9576111c8610fad565b5b5092915050565b7f45524332303a2064656372656173656420616c6c6f77616e63652062656c6f7760008201527f207a65726f000000000000000000000000000000000000000000000000000000602082015250565b600061122c602583610c76565b9150611237826111d0565b604082019050919050565b6000602082019050818103600083015261125b8161121f565b9050919050565b7f45524332303a20617070726f76652066726f6d20746865207a65726f2061646460008201527f7265737300000000000000000000000000000000000000000000000000000000602082015250565b60006112be602483610c76565b91506112c982611262565b604082019050919050565b600060208201905081810360008301526112ed816112b1565b9050919050565b7f45524332303a20617070726f766520746f20746865207a65726f20616464726560008201527f7373000000000000000000000000000000000000000000000000000000000000602082015250565b6000611350602283610c76565b915061135b826112f4565b604082019050919050565b6000602082019050818103600083015261137f81611343565b9050919050565b7f45524332303a20696e73756666696369656e7420616c6c6f77616e6365000000600082015250565b60006113bc601d83610c76565b91506113c782611386565b602082019050919050565b600060208201905081810360008301526113eb816113af565b9050919050565b7f45524332303a207472616e736665722066726f6d20746865207a65726f20616460008201527f6472657373000000000000000000000000000000000000000000000000000000602082015250565b600061144e602583610c76565b9150611459826113f2565b604082019050919050565b6000602082019050818103600083015261147d81611441565b9050919050565b7f45524332303a207472616e7366657220746f20746865207a65726f206164647260008201527f6573730000000000000000000000000000000000000000000000000000000000602082015250565b60006114e0602383610c76565b91506114eb82611484565b604082019050919050565b6000602082019050818103600083015261150f816114d3565b9050919050565b7f45524332303a207472616e7366657220616d6f756e742065786365656473206260008201527f616c616e63650000000000000000000000000000000000000000000000000000602082015250565b6000611572602683610c76565b915061157d82611516565b604082019050919050565b600060208201905081810360008301526115a181611565565b9050919050565b7f45524332303a206d696e7420746f20746865207a65726f206164647265737300600082015250565b60006115de601f83610c76565b91506115e9826115a8565b602082019050919050565b6000602082019050818103600083015261160d816115d1565b905091905056fea264697066735822122014d84fdc9348377161ba8d99460bab5cc586515fdc3fcf9459e999b9fa396e3e64736f6c63430008120033",
  "linkReferences": {},
  "deployedLinkReferences": {}
}