{
  "_format": "hh-sol-artifact-1",
  "contractName": "XToken",
  "sourceName": "contracts/XToken.sol",
  "abi": [
    {
      "inputs": [
        {
          "internalType": "address",
          "name": "baseTokenAddress",
          "type": "address"
        },
        {
          "internalType": "string",
          "name": "name",
          "type": "string"
        },
        {
          "internalType": "string",
          "name": "symbol",
          "type": "string"
        }
      ],
      "stateMutability": "nonpayable",
      "type": "constructor"
    },
    {
      "anonymous": false,
      "inputs": [
        {
          "indexed": true,
          "internalType": "address",
          "name": "owner",
          "type": "address"
        },
        {
          "indexed": true,
          "internalType": "address",
          "name": "spender",
          "type": "address"
        },
        {
          "indexed": false,
          "internalType": "uint256",
          "name": "value",
          "type": "uint256"
        }
      ],
      "name": "Approval",
      "type": "event"
    },
    {
      "anonymous": false,
      "inputs": [
        {
          "indexed": true,
          "internalType": "address",
          "name": "previousOwner",
          "type": "address"
        },
        {
          "indexed": true,
          "internalType": "address",
          "name": "newOwner",
          "type": "address"
        }
      ],
      "name": "OwnershipTransferred",
      "type": "event"
    },
    {
      "anonymous": false,
      "inputs": [
        {
          "indexed": false,
          "internalType": "uint256",
          "name": "quantityDeposit",
          "type": "uint256"
        }
      ],
      "name": "ProfitDeposit",
      "type": "event"
    },
    {
      "anonymous": false,
      "inputs": [
        {
          "indexed": true,
          "internalType": "address",
          "name": "from",
          "type": "address"
        },
        {
          "indexed": true,
          "internalType": "address",
          "name": "to",
          "type": "address"
        },
        {
          "indexed": false,
          "internalType": "uint256",
          "name": "value",
          "type": "uint256"
        }
      ],
      "name": "Transfer",
      "type": "event"
    },
    {
      "anonymous": false,
      "inputs": [
        {
          "indexed": true,
          "internalType": "address",
          "name": "to",
          "type": "address"
        },
        {
          "indexed": false,
          "internalType": "uint256",
          "name": "amount",
          "type": "uint256"
        }
      ],
      "name": "Vesting",
      "type": "event"
    },
    {
      "anonymous": false,
      "inputs": [
        {
          "indexed": true,
          "internalType": "address",
          "name": "to",
          "type": "address"
        },
        {
          "indexed": false,
          "internalType": "uint256",
          "name": "amount",
          "type": "uint256"
        }
      ],
      "name": "Withdraw",
      "type": "event"
    },
    {
      "inputs": [
        {
          "internalType": "address",
          "name": "owner",
          "type": "address"
        },
        {
          "internalType": "address",
          "name": "spender",
          "type": "address"
        }
      ],
      "name": "allowance",
      "outputs": [
        {
          "internalType": "uint256",
          "name": "",
          "type": "uint256"
        }
      ],
      "stateMutability": "view",
      "type": "function"
    },
    {
      "inputs": [
        {
          "internalType": "address",
          "name": "spender",
          "type": "address"
        },
        {
          "internalType": "uint256",
          "name": "amount",
          "type": "uint256"
        }
      ],
      "name": "approve",
      "outputs": [
        {
          "internalType": "bool",
          "name": "",
          "type": "bool"
        }
      ],
      "stateMutability": "nonpayable",
      "type": "function"
    },
    {
      "inputs": [
        {
          "internalType": "address",
          "name": "account",
          "type": "address"
        }
      ],
      "name": "balanceOf",
      "outputs": [
        {
          "internalType": "uint256",
          "name": "",
          "type": "uint256"
        }
      ],
      "stateMutability": "view",
      "type": "function"
    },
    {
      "inputs": [],
      "name": "baseToken",
      "outputs": [
        {
          "internalType": "contract ERC20",
          "name": "",
          "type": "address"
        }
      ],
      "stateMutability": "view",
      "type": "function"
    },
    {
      "inputs": [],
      "name": "baseTokenTreasury",
      "outputs": [
        {
          "internalType": "uint256",
          "name": "",
          "type": "uint256"
        }
      ],
      "stateMutability": "view",
      "type": "function"
    },
    {
      "inputs": [],
      "name": "decimals",
      "outputs": [
        {
          "internalType": "uint8",
          "name": "",
          "type": "uint8"
        }
      ],
      "stateMutability": "view",
      "type": "function"
    },
    {
      "inputs": [
        {
          "internalType": "address",
          "name": "spender",
          "type": "address"
        },
        {
          "internalType": "uint256",
          "name": "subtractedValue",
          "type": "uint256"
        }
      ],
      "name": "decreaseAllowance",
      "outputs": [
        {
          "internalType": "bool",
          "name": "",
          "type": "bool"
        }
      ],
      "stateMutability": "nonpayable",
      "type": "function"
    },
    {
      "inputs": [
        {
          "internalType": "uint256",
          "name": "quantityDeposit",
          "type": "uint256"
        }
      ],
      "name": "depositProfit",
      "outputs": [],
      "stateMutability": "nonpayable",
      "type": "function"
    },
    {
      "inputs": [],
      "name": "getRatio",
      "outputs": [
        {
          "internalType": "uint256",
          "name": "",
          "type": "uint256"
        }
      ],
      "stateMutability": "view",
      "type": "function"
    },
    {
      "inputs": [],
      "name": "getTotalStaked",
      "outputs": [
        {
          "internalType": "uint256",
          "name": "",
          "type": "uint256"
        }
      ],
      "stateMutability": "view",
      "type": "function"
    },
    {
      "inputs": [
        {
          "internalType": "address",
          "name": "spender",
          "type": "address"
        },
        {
          "internalType": "uint256",
          "name": "addedValue",
          "type": "uint256"
        }
      ],
      "name": "increaseAllowance",
      "outputs": [
        {
          "internalType": "bool",
          "name": "",
          "type": "bool"
        }
      ],
      "stateMutability": "nonpayable",
      "type": "function"
    },
    {
      "inputs": [],
      "name": "name",
      "outputs": [
        {
          "internalType": "string",
          "name": "",
          "type": "string"
        }
      ],
      "stateMutability": "view",
      "type": "function"
    },
    {
      "inputs": [],
      "name": "owner",
      "outputs": [
        {
          "internalType": "address",
          "name": "",
          "type": "address"
        }
      ],
      "stateMutability": "view",
      "type": "function"
    },
    {
      "inputs": [
        {
          "internalType": "address",
          "name": "to",
          "type": "address"
        },
        {
          "internalType": "uint256",
          "name": "amount",
          "type": "uint256"
        }
      ],
      "name": "ownerMint",
      "outputs": [],
      "stateMutability": "nonpayable",
      "type": "function"
    },
    {
      "inputs": [],
      "name": "renounceOwnership",
      "outputs": [],
      "stateMutability": "nonpayable",
      "type": "function"
    },
    {
      "inputs": [
        {
          "internalType": "uint256",
          "name": "amountToBurn",
          "type": "uint256"
        }
      ],
      "name": "simpleTest",
      "outputs": [],
      "stateMutability": "nonpayable",
      "type": "function"
    },
    {
      "inputs": [],
      "name": "symbol",
      "outputs": [
        {
          "internalType": "string",
          "name": "",
          "type": "string"
        }
      ],
      "stateMutability": "view",
      "type": "function"
    },
    {
      "inputs": [],
      "name": "totalSupply",
      "outputs": [
        {
          "internalType": "uint256",
          "name": "",
          "type": "uint256"
        }
      ],
      "stateMutability": "view",
      "type": "function"
    },
    {
      "inputs": [
        {
          "internalType": "address",
          "name": "to",
          "type": "address"
        },
        {
          "internalType": "uint256",
          "name": "amount",
          "type": "uint256"
        }
      ],
      "name": "transfer",
      "outputs": [
        {
          "internalType": "bool",
          "name": "",
          "type": "bool"
        }
      ],
      "stateMutability": "nonpayable",
      "type": "function"
    },
    {
      "inputs": [
        {
          "internalType": "address",
          "name": "from",
          "type": "address"
        },
        {
          "internalType": "address",
          "name": "to",
          "type": "address"
        },
        {
          "internalType": "uint256",
          "name": "amount",
          "type": "uint256"
        }
      ],
      "name": "transferFrom",
      "outputs": [
        {
          "internalType": "bool",
          "name": "",
          "type": "bool"
        }
      ],
      "stateMutability": "nonpayable",
      "type": "function"
    },
    {
      "inputs": [
        {
          "internalType": "address",
          "name": "newOwner",
          "type": "address"
        }
      ],
      "name": "transferOwnership",
      "outputs": [],
      "stateMutability": "nonpayable",
      "type": "function"
    },
    {
      "inputs": [
        {
          "internalType": "uint256",
          "name": "baseTokenAmount",
          "type": "uint256"
        }
      ],
      "name": "userDeposit",
      "outputs": [],
      "stateMutability": "nonpayable",
      "type": "function"
    },
    {
      "inputs": [
        {
          "internalType": "uint256",
          "name": "amountToBurn",
          "type": "uint256"
        }
      ],
      "name": "userWithdraw",
      "outputs": [],
      "stateMutability": "nonpayable",
      "type": "function"
    }
  ],
  "bytecode": "0x60806040523480156200001157600080fd5b50604051620029253803806200292583398181016040528101906200003791906200038f565b818181600390816200004a919062000674565b5080600490816200005c919062000674565b5050506200007f62000073620000c960201b60201c565b620000d160201b60201c565b82600660006101000a81548173ffffffffffffffffffffffffffffffffffffffff021916908373ffffffffffffffffffffffffffffffffffffffff1602179055505050506200075b565b600033905090565b6000600560009054906101000a900473ffffffffffffffffffffffffffffffffffffffff16905081600560006101000a81548173ffffffffffffffffffffffffffffffffffffffff021916908373ffffffffffffffffffffffffffffffffffffffff1602179055508173ffffffffffffffffffffffffffffffffffffffff168173ffffffffffffffffffffffffffffffffffffffff167f8be0079c531659141344cd1fd0a4f28419497f9722a3daafe3b4186f6b6457e060405160405180910390a35050565b6000604051905090565b600080fd5b600080fd5b600073ffffffffffffffffffffffffffffffffffffffff82169050919050565b6000620001d882620001ab565b9050919050565b620001ea81620001cb565b8114620001f657600080fd5b50565b6000815190506200020a81620001df565b92915050565b600080fd5b600080fd5b6000601f19601f8301169050919050565b7f4e487b7100000000000000000000000000000000000000000000000000000000600052604160045260246000fd5b62000265826200021a565b810181811067ffffffffffffffff821117156200028757620002866200022b565b5b80604052505050565b60006200029c62000197565b9050620002aa82826200025a565b919050565b600067ffffffffffffffff821115620002cd57620002cc6200022b565b5b620002d8826200021a565b9050602081019050919050565b60005b8381101562000305578082015181840152602081019050620002e8565b60008484015250505050565b6000620003286200032284620002af565b62000290565b90508281526020810184848401111562000347576200034662000215565b5b62000354848285620002e5565b509392505050565b600082601f83011262000374576200037362000210565b5b81516200038684826020860162000311565b91505092915050565b600080600060608486031215620003ab57620003aa620001a1565b5b6000620003bb86828701620001f9565b935050602084015167ffffffffffffffff811115620003df57620003de620001a6565b5b620003ed868287016200035c565b925050604084015167ffffffffffffffff811115620004115762000410620001a6565b5b6200041f868287016200035c565b9150509250925092565b600081519050919050565b7f4e487b7100000000000000000000000000000000000000000000000000000000600052602260045260246000fd5b600060028204905060018216806200047c57607f821691505b60208210810362000492576200049162000434565b5b50919050565b60008190508160005260206000209050919050565b60006020601f8301049050919050565b600082821b905092915050565b600060088302620004fc7fffffffffffffffffffffffffffffffffffffffffffffffffffffffffffffffff82620004bd565b620005088683620004bd565b95508019841693508086168417925050509392505050565b6000819050919050565b6000819050919050565b6000620005556200054f620005498462000520565b6200052a565b62000520565b9050919050565b6000819050919050565b620005718362000534565b6200058962000580826200055c565b848454620004ca565b825550505050565b600090565b620005a062000591565b620005ad81848462000566565b505050565b5b81811015620005d557620005c960008262000596565b600181019050620005b3565b5050565b601f8211156200062457620005ee8162000498565b620005f984620004ad565b8101602085101562000609578190505b620006216200061885620004ad565b830182620005b2565b50505b505050565b600082821c905092915050565b6000620006496000198460080262000629565b1980831691505092915050565b600062000664838362000636565b9150826002028217905092915050565b6200067f8262000429565b67ffffffffffffffff8111156200069b576200069a6200022b565b5b620006a7825462000463565b620006b4828285620005d9565b600060209050601f831160018114620006ec5760008415620006d7578287015190505b620006e3858262000656565b86555062000753565b601f198416620006fc8662000498565b60005b828110156200072657848901518255600182019150602085019450602081019050620006ff565b8683101562000746578489015162000742601f89168262000636565b8355505b6001600288020188555050505b505050505050565b6121ba806200076b6000396000f3fe608060405234801561001057600080fd5b506004361061014d5760003560e01c806370a08231116100c3578063a9059cbb1161007c578063a9059cbb1461038e578063c55dae63146103be578063dd62ed3e146103dc578063ec1ebd7a1461040c578063f2fde38b1461042a578063f868e766146104465761014d565b806370a08231146102ca578063715018a6146102fa57806373d01959146103045780638da5cb5b1461032257806395d89b4114610340578063a457c2d71461035e5761014d565b8063313ce56711610115578063313ce5671461020c57806333c19ab01461022a57806339509351146102465780633b9056bf14610276578063484b973c14610292578063709a8b18146102ae5761014d565b806306fdde03146101525780630917e77614610170578063095ea7b31461018e57806318160ddd146101be57806323b872dd146101dc575b600080fd5b61015a610462565b60405161016791906115a9565b60405180910390f35b6101786104f4565b60405161018591906115e4565b60405180910390f35b6101a860048036038101906101a3919061168e565b6104fe565b6040516101b591906116e9565b60405180910390f35b6101c6610521565b6040516101d391906115e4565b60405180910390f35b6101f660048036038101906101f19190611704565b61052b565b60405161020391906116e9565b60405180910390f35b61021461055a565b6040516102219190611773565b60405180910390f35b610244600480360381019061023f919061178e565b610563565b005b610260600480360381019061025b919061168e565b6105be565b60405161026d91906116e9565b60405180910390f35b610290600480360381019061028b919061178e565b6105f5565b005b6102ac60048036038101906102a7919061168e565b610601565b005b6102c860048036038101906102c3919061178e565b610617565b005b6102e460048036038101906102df91906117bb565b610625565b6040516102f191906115e4565b60405180910390f35b61030261066d565b005b61030c610681565b60405161031991906115e4565b60405180910390f35b61032a610687565b60405161033791906117f7565b60405180910390f35b6103486106b1565b60405161035591906115a9565b60405180910390f35b6103786004803603810190610373919061168e565b610743565b60405161038591906116e9565b60405180910390f35b6103a860048036038101906103a3919061168e565b6107ba565b6040516103b591906116e9565b60405180910390f35b6103c66107dd565b6040516103d39190611871565b60405180910390f35b6103f660048036038101906103f1919061188c565b610803565b60405161040391906115e4565b60405180910390f35b61041461088a565b60405161042191906115e4565b60405180910390f35b610444600480360381019061043f91906117bb565b6108b2565b005b610460600480360381019061045b919061178e565b610935565b005b606060038054610471906118fb565b80601f016020809104026020016040519081016040528092919081815260200182805461049d906118fb565b80156104ea5780601f106104bf576101008083540402835291602001916104ea565b820191906000526020600020905b8154815290600101906020018083116104cd57829003601f168201915b5050505050905090565b6000600754905090565b600080610509610941565b9050610516818585610949565b600191505092915050565b6000600254905090565b600080610536610941565b9050610543858285610b12565b61054e858585610b9e565b60019150509392505050565b60006012905090565b61056b610e14565b806007600082825461057d919061195b565b925050819055507fde88ee2201b9a104dc176e8f1128cec8ef6d09de8d09442b18e173e0f38cc81c816040516105b391906115e4565b60405180910390a150565b6000806105c9610941565b90506105ea8185856105db8589610803565b6105e5919061195b565b610949565b600191505092915050565b6105fe81610e92565b50565b610609610e14565b6106138282610fd7565b5050565b610622333083610b9e565b50565b60008060008373ffffffffffffffffffffffffffffffffffffffff1673ffffffffffffffffffffffffffffffffffffffff168152602001908152602001600020549050919050565b610675610e14565b61067f600061112d565b565b60075481565b6000600560009054906101000a900473ffffffffffffffffffffffffffffffffffffffff16905090565b6060600480546106c0906118fb565b80601f01602080910402602001604051908101604052809291908181526020018280546106ec906118fb565b80156107395780601f1061070e57610100808354040283529160200191610739565b820191906000526020600020905b81548152906001019060200180831161071c57829003601f168201915b5050505050905090565b60008061074e610941565b9050600061075c8286610803565b9050838110156107a1576040517f08c379a000000000000000000000000000000000000000000000000000000000815260040161079890611a01565b60405180910390fd5b6107ae8286868403610949565b60019250505092915050565b6000806107c5610941565b90506107d2818585610b9e565b600191505092915050565b600660009054906101000a900473ffffffffffffffffffffffffffffffffffffffff1681565b6000600160008473ffffffffffffffffffffffffffffffffffffffff1673ffffffffffffffffffffffffffffffffffffffff16815260200190815260200160002060008373ffffffffffffffffffffffffffffffffffffffff1673ffffffffffffffffffffffffffffffffffffffff16815260200190815260200160002054905092915050565b6000610894610521565b60646007546108a39190611a21565b6108ad9190611a92565b905090565b6108ba610e14565b600073ffffffffffffffffffffffffffffffffffffffff168173ffffffffffffffffffffffffffffffffffffffff1603610929576040517f08c379a000000000000000000000000000000000000000000000000000000000815260040161092090611b35565b60405180910390fd5b6109328161112d565b50565b61093e816111f3565b50565b600033905090565b600073ffffffffffffffffffffffffffffffffffffffff168373ffffffffffffffffffffffffffffffffffffffff16036109b8576040517f08c379a00000000000000000000000000000000000000000000000000000000081526004016109af90611bc7565b60405180910390fd5b600073ffffffffffffffffffffffffffffffffffffffff168273ffffffffffffffffffffffffffffffffffffffff1603610a27576040517f08c379a0000000000000000000000000000000000000000000000000000000008152600401610a1e90611c59565b60405180910390fd5b80600160008573ffffffffffffffffffffffffffffffffffffffff1673ffffffffffffffffffffffffffffffffffffffff16815260200190815260200160002060008473ffffffffffffffffffffffffffffffffffffffff1673ffffffffffffffffffffffffffffffffffffffff168152602001908152602001600020819055508173ffffffffffffffffffffffffffffffffffffffff168373ffffffffffffffffffffffffffffffffffffffff167f8c5be1e5ebec7d5bd14f71427d1e84f3dd0314c0f7b2291e5b200ac8c7c3b92583604051610b0591906115e4565b60405180910390a3505050565b6000610b1e8484610803565b90507fffffffffffffffffffffffffffffffffffffffffffffffffffffffffffffffff8114610b985781811015610b8a576040517f08c379a0000000000000000000000000000000000000000000000000000000008152600401610b8190611cc5565b60405180910390fd5b610b978484848403610949565b5b50505050565b600073ffffffffffffffffffffffffffffffffffffffff168373ffffffffffffffffffffffffffffffffffffffff1603610c0d576040517f08c379a0000000000000000000000000000000000000000000000000000000008152600401610c0490611d57565b60405180910390fd5b600073ffffffffffffffffffffffffffffffffffffffff168273ffffffffffffffffffffffffffffffffffffffff1603610c7c576040517f08c379a0000000000000000000000000000000000000000000000000000000008152600401610c7390611de9565b60405180910390fd5b610c87838383611342565b60008060008573ffffffffffffffffffffffffffffffffffffffff1673ffffffffffffffffffffffffffffffffffffffff16815260200190815260200160002054905081811015610d0d576040517f08c379a0000000000000000000000000000000000000000000000000000000008152600401610d0490611e7b565b60405180910390fd5b8181036000808673ffffffffffffffffffffffffffffffffffffffff1673ffffffffffffffffffffffffffffffffffffffff16815260200190815260200160002081905550816000808573ffffffffffffffffffffffffffffffffffffffff1673ffffffffffffffffffffffffffffffffffffffff168152602001908152602001600020600082825401925050819055508273ffffffffffffffffffffffffffffffffffffffff168473ffffffffffffffffffffffffffffffffffffffff167fddf252ad1be2c89b69c2b068fc378daa952ba7f163c4a11628f55a4df523b3ef84604051610dfb91906115e4565b60405180910390a3610e0e848484611347565b50505050565b610e1c610941565b73ffffffffffffffffffffffffffffffffffffffff16610e3a610687565b73ffffffffffffffffffffffffffffffffffffffff1614610e90576040517f08c379a0000000000000000000000000000000000000000000000000000000008152600401610e8790611ee7565b60405180910390fd5b565b610e9d333083610b9e565b6000610ea7610521565b60075483610eb59190611a21565b610ebf9190611a92565b9050610ecb308361134c565b8060076000828254610edd9190611f07565b92505081905550600660009054906101000a900473ffffffffffffffffffffffffffffffffffffffff1673ffffffffffffffffffffffffffffffffffffffff1663a9059cbb33836040518363ffffffff1660e01b8152600401610f41929190611f3b565b6020604051808303816000875af1158015610f60573d6000803e3d6000fd5b505050506040513d601f19601f82011682018060405250810190610f849190611f90565b503373ffffffffffffffffffffffffffffffffffffffff167f884edad9ce6fa2440d8a54cc123490eb96d2768479d49ff9c7366125a942436483604051610fcb91906115e4565b60405180910390a25050565b600073ffffffffffffffffffffffffffffffffffffffff168273ffffffffffffffffffffffffffffffffffffffff1603611046576040517f08c379a000000000000000000000000000000000000000000000000000000000815260040161103d90612009565b60405180910390fd5b61105260008383611342565b8060026000828254611064919061195b565b92505081905550806000808473ffffffffffffffffffffffffffffffffffffffff1673ffffffffffffffffffffffffffffffffffffffff168152602001908152602001600020600082825401925050819055508173ffffffffffffffffffffffffffffffffffffffff16600073ffffffffffffffffffffffffffffffffffffffff167fddf252ad1be2c89b69c2b068fc378daa952ba7f163c4a11628f55a4df523b3ef8360405161111591906115e4565b60405180910390a361112960008383611347565b5050565b6000600560009054906101000a900473ffffffffffffffffffffffffffffffffffffffff16905081600560006101000a81548173ffffffffffffffffffffffffffffffffffffffff021916908373ffffffffffffffffffffffffffffffffffffffff1602179055508173ffffffffffffffffffffffffffffffffffffffff168173ffffffffffffffffffffffffffffffffffffffff167f8be0079c531659141344cd1fd0a4f28419497f9722a3daafe3b4186f6b6457e060405160405180910390a35050565b6000600660009054906101000a900473ffffffffffffffffffffffffffffffffffffffff1673ffffffffffffffffffffffffffffffffffffffff166323b872dd3330856040518463ffffffff1660e01b815260040161125493929190612029565b6020604051808303816000875af1158015611273573d6000803e3d6000fd5b505050506040513d601f19601f820116820180604052508101906112979190611f90565b506000600754036112aa578190506112cd565b6007546112b5610521565b836112c09190611a21565b6112ca9190611a92565b90505b6112d73382610fd7565b81600760008282546112e9919061195b565b925050819055503373ffffffffffffffffffffffffffffffffffffffff167fd8c062e1121a4d8261df9c04930989855139a33297e0f1598cf7779aa5695b818260405161133691906115e4565b60405180910390a25050565b505050565b505050565b600073ffffffffffffffffffffffffffffffffffffffff168273ffffffffffffffffffffffffffffffffffffffff16036113bb576040517f08c379a00000000000000000000000000000000000000000000000000000000081526004016113b2906120d2565b60405180910390fd5b6113c782600083611342565b60008060008473ffffffffffffffffffffffffffffffffffffffff1673ffffffffffffffffffffffffffffffffffffffff1681526020019081526020016000205490508181101561144d576040517f08c379a000000000000000000000000000000000000000000000000000000000815260040161144490612164565b60405180910390fd5b8181036000808573ffffffffffffffffffffffffffffffffffffffff1673ffffffffffffffffffffffffffffffffffffffff1681526020019081526020016000208190555081600260008282540392505081905550600073ffffffffffffffffffffffffffffffffffffffff168373ffffffffffffffffffffffffffffffffffffffff167fddf252ad1be2c89b69c2b068fc378daa952ba7f163c4a11628f55a4df523b3ef8460405161150091906115e4565b60405180910390a361151483600084611347565b505050565b600081519050919050565b600082825260208201905092915050565b60005b83811015611553578082015181840152602081019050611538565b60008484015250505050565b6000601f19601f8301169050919050565b600061157b82611519565b6115858185611524565b9350611595818560208601611535565b61159e8161155f565b840191505092915050565b600060208201905081810360008301526115c38184611570565b905092915050565b6000819050919050565b6115de816115cb565b82525050565b60006020820190506115f960008301846115d5565b92915050565b600080fd5b600073ffffffffffffffffffffffffffffffffffffffff82169050919050565b600061162f82611604565b9050919050565b61163f81611624565b811461164a57600080fd5b50565b60008135905061165c81611636565b92915050565b61166b816115cb565b811461167657600080fd5b50565b60008135905061168881611662565b92915050565b600080604083850312156116a5576116a46115ff565b5b60006116b38582860161164d565b92505060206116c485828601611679565b9150509250929050565b60008115159050919050565b6116e3816116ce565b82525050565b60006020820190506116fe60008301846116da565b92915050565b60008060006060848603121561171d5761171c6115ff565b5b600061172b8682870161164d565b935050602061173c8682870161164d565b925050604061174d86828701611679565b9150509250925092565b600060ff82169050919050565b61176d81611757565b82525050565b60006020820190506117886000830184611764565b92915050565b6000602082840312156117a4576117a36115ff565b5b60006117b284828501611679565b91505092915050565b6000602082840312156117d1576117d06115ff565b5b60006117df8482850161164d565b91505092915050565b6117f181611624565b82525050565b600060208201905061180c60008301846117e8565b92915050565b6000819050919050565b600061183761183261182d84611604565b611812565b611604565b9050919050565b60006118498261181c565b9050919050565b600061185b8261183e565b9050919050565b61186b81611850565b82525050565b60006020820190506118866000830184611862565b92915050565b600080604083850312156118a3576118a26115ff565b5b60006118b18582860161164d565b92505060206118c28582860161164d565b9150509250929050565b7f4e487b7100000000000000000000000000000000000000000000000000000000600052602260045260246000fd5b6000600282049050600182168061191357607f821691505b602082108103611926576119256118cc565b5b50919050565b7f4e487b7100000000000000000000000000000000000000000000000000000000600052601160045260246000fd5b6000611966826115cb565b9150611971836115cb565b92508282019050808211156119895761198861192c565b5b92915050565b7f45524332303a2064656372656173656420616c6c6f77616e63652062656c6f7760008201527f207a65726f000000000000000000000000000000000000000000000000000000602082015250565b60006119eb602583611524565b91506119f68261198f565b604082019050919050565b60006020820190508181036000830152611a1a816119de565b9050919050565b6000611a2c826115cb565b9150611a37836115cb565b9250828202611a45816115cb565b91508282048414831517611a5c57611a5b61192c565b5b5092915050565b7f4e487b7100000000000000000000000000000000000000000000000000000000600052601260045260246000fd5b6000611a9d826115cb565b9150611aa8836115cb565b925082611ab857611ab7611a63565b5b828204905092915050565b7f4f776e61626c653a206e6577206f776e657220697320746865207a65726f206160008201527f6464726573730000000000000000000000000000000000000000000000000000602082015250565b6000611b1f602683611524565b9150611b2a82611ac3565b604082019050919050565b60006020820190508181036000830152611b4e81611b12565b9050919050565b7f45524332303a20617070726f76652066726f6d20746865207a65726f2061646460008201527f7265737300000000000000000000000000000000000000000000000000000000602082015250565b6000611bb1602483611524565b9150611bbc82611b55565b604082019050919050565b60006020820190508181036000830152611be081611ba4565b9050919050565b7f45524332303a20617070726f766520746f20746865207a65726f20616464726560008201527f7373000000000000000000000000000000000000000000000000000000000000602082015250565b6000611c43602283611524565b9150611c4e82611be7565b604082019050919050565b60006020820190508181036000830152611c7281611c36565b9050919050565b7f45524332303a20696e73756666696369656e7420616c6c6f77616e6365000000600082015250565b6000611caf601d83611524565b9150611cba82611c79565b602082019050919050565b60006020820190508181036000830152611cde81611ca2565b9050919050565b7f45524332303a207472616e736665722066726f6d20746865207a65726f20616460008201527f6472657373000000000000000000000000000000000000000000000000000000602082015250565b6000611d41602583611524565b9150611d4c82611ce5565b604082019050919050565b60006020820190508181036000830152611d7081611d34565b9050919050565b7f45524332303a207472616e7366657220746f20746865207a65726f206164647260008201527f6573730000000000000000000000000000000000000000000000000000000000602082015250565b6000611dd3602383611524565b9150611dde82611d77565b604082019050919050565b60006020820190508181036000830152611e0281611dc6565b9050919050565b7f45524332303a207472616e7366657220616d6f756e742065786365656473206260008201527f616c616e63650000000000000000000000000000000000000000000000000000602082015250565b6000611e65602683611524565b9150611e7082611e09565b604082019050919050565b60006020820190508181036000830152611e9481611e58565b9050919050565b7f4f776e61626c653a2063616c6c6572206973206e6f7420746865206f776e6572600082015250565b6000611ed1602083611524565b9150611edc82611e9b565b602082019050919050565b60006020820190508181036000830152611f0081611ec4565b9050919050565b6000611f12826115cb565b9150611f1d836115cb565b9250828203905081811115611f3557611f3461192c565b5b92915050565b6000604082019050611f5060008301856117e8565b611f5d60208301846115d5565b9392505050565b611f6d816116ce565b8114611f7857600080fd5b50565b600081519050611f8a81611f64565b92915050565b600060208284031215611fa657611fa56115ff565b5b6000611fb484828501611f7b565b91505092915050565b7f45524332303a206d696e7420746f20746865207a65726f206164647265737300600082015250565b6000611ff3601f83611524565b9150611ffe82611fbd565b602082019050919050565b6000602082019050818103600083015261202281611fe6565b9050919050565b600060608201905061203e60008301866117e8565b61204b60208301856117e8565b61205860408301846115d5565b949350505050565b7f45524332303a206275726e2066726f6d20746865207a65726f2061646472657360008201527f7300000000000000000000000000000000000000000000000000000000000000602082015250565b60006120bc602183611524565b91506120c782612060565b604082019050919050565b600060208201905081810360008301526120eb816120af565b9050919050565b7f45524332303a206275726e20616d6f756e7420657863656564732062616c616e60008201527f6365000000000000000000000000000000000000000000000000000000000000602082015250565b600061214e602283611524565b9150612159826120f2565b604082019050919050565b6000602082019050818103600083015261217d81612141565b905091905056fea264697066735822122029dacf45437139e2c40070f4504559daa1c751cc9ec85d64116856df7b01c77264736f6c63430008120033",
  "linkReferences": {},
  "deployedLinkReferences": {}
}