{
  "_format": "hh-sol-artifact-1",
  "contractName": "Launchpad",
  "sourceName": "contracts/Launchpad.sol",
  "abi": [
    {
      "inputs": [],
      "stateMutability": "payable",
      "type": "constructor"
    },
    {
      "anonymous": false,
      "inputs": [
        {
          "indexed": false,
          "internalType": "uint256",
          "name": "projectId",
          "type": "uint256"
        },
        {
          "indexed": false,
          "internalType": "address",
          "name": "investor",
          "type": "address"
        },
        {
          "indexed": false,
          "internalType": "uint256",
          "name": "amount",
          "type": "uint256"
        }
      ],
      "name": "ClaimVesting",
      "type": "event"
    },
    {
      "anonymous": false,
      "inputs": [
        {
          "indexed": true,
          "internalType": "address",
          "name": "previousOwner",
          "type": "address"
        },
        {
          "indexed": true,
          "internalType": "address",
          "name": "newOwner",
          "type": "address"
        }
      ],
      "name": "OwnershipTransferred",
      "type": "event"
    },
    {
      "anonymous": false,
      "inputs": [
        {
          "indexed": false,
          "internalType": "uint256",
          "name": "projectId",
          "type": "uint256"
        }
      ],
      "name": "ProjectCreated",
      "type": "event"
    },
    {
      "inputs": [
        {
          "internalType": "address",
          "name": "",
          "type": "address"
        }
      ],
      "name": "accessCount",
      "outputs": [
        {
          "internalType": "uint256",
          "name": "",
          "type": "uint256"
        }
      ],
      "stateMutability": "view",
      "type": "function"
    },
    {
      "inputs": [
        {
          "internalType": "address",
          "name": "_admin",
          "type": "address"
        }
      ],
      "name": "addAdmin",
      "outputs": [],
      "stateMutability": "nonpayable",
      "type": "function"
    },
    {
      "inputs": [
        {
          "internalType": "uint256",
          "name": "_id",
          "type": "uint256"
        },
        {
          "internalType": "address",
          "name": "_investor",
          "type": "address"
        },
        {
          "internalType": "uint256",
          "name": "_allowanceAmount",
          "type": "uint256"
        }
      ],
      "name": "addToWhitelist",
      "outputs": [],
      "stateMutability": "nonpayable",
      "type": "function"
    },
    {
      "inputs": [
        {
          "internalType": "address",
          "name": "",
          "type": "address"
        }
      ],
      "name": "admins",
      "outputs": [
        {
          "internalType": "bool",
          "name": "",
          "type": "bool"
        }
      ],
      "stateMutability": "view",
      "type": "function"
    },
    {
      "inputs": [
        {
          "internalType": "uint256",
          "name": "_id",
          "type": "uint256"
        }
      ],
      "name": "claimVesting",
      "outputs": [],
      "stateMutability": "payable",
      "type": "function"
    },
    {
      "inputs": [
        {
          "internalType": "address payable",
          "name": "_owner",
          "type": "address"
        },
        {
          "internalType": "contract IERC20",
          "name": "_saleToken",
          "type": "address"
        },
        {
          "internalType": "contract IERC20",
          "name": "_vestingToken",
          "type": "address"
        },
        {
          "internalType": "uint256",
          "name": "_totalSaleAmount",
          "type": "uint256"
        },
        {
          "internalType": "uint256",
          "name": "_tokenPerAllocation",
          "type": "uint256"
        },
        {
          "internalType": "uint256",
          "name": "_privateStartTime",
          "type": "uint256"
        },
        {
          "internalType": "uint256",
          "name": "_privateSaleDuration",
          "type": "uint256"
        },
        {
          "internalType": "uint256",
          "name": "_publicStartTime",
          "type": "uint256"
        },
        {
          "internalType": "uint256",
          "name": "_publicSaleDuration",
          "type": "uint256"
        },
        {
          "internalType": "uint256",
          "name": "_vestingStartTime",
          "type": "uint256"
        },
        {
          "internalType": "uint256",
          "name": "_initialReleasePercent",
          "type": "uint256"
        },
        {
          "internalType": "uint256",
          "name": "_cliffStartTime",
          "type": "uint256"
        },
        {
          "internalType": "uint256",
          "name": "_cliffDuration",
          "type": "uint256"
        },
        {
          "internalType": "uint256",
          "name": "_nativePrivateSalePrice",
          "type": "uint256"
        },
        {
          "internalType": "uint256",
          "name": "_nativePublicSalePrice",
          "type": "uint256"
        },
        {
          "internalType": "uint256",
          "name": "_privateSalePrice",
          "type": "uint256"
        },
        {
          "internalType": "uint256",
          "name": "_publicSalePrice",
          "type": "uint256"
        }
      ],
      "name": "createProject",
      "outputs": [],
      "stateMutability": "nonpayable",
      "type": "function"
    },
    {
      "inputs": [
        {
          "internalType": "uint256",
          "name": "_id",
          "type": "uint256"
        }
      ],
      "name": "fundListing",
      "outputs": [],
      "stateMutability": "nonpayable",
      "type": "function"
    },
    {
      "inputs": [
        {
          "internalType": "uint256",
          "name": "_id",
          "type": "uint256"
        },
        {
          "internalType": "address",
          "name": "_investor",
          "type": "address"
        }
      ],
      "name": "getAllocationAmount",
      "outputs": [
        {
          "internalType": "uint256",
          "name": "",
          "type": "uint256"
        }
      ],
      "stateMutability": "view",
      "type": "function"
    },
    {
      "inputs": [
        {
          "internalType": "uint256",
          "name": "_id",
          "type": "uint256"
        }
      ],
      "name": "getProject",
      "outputs": [
        {
          "internalType": "address payable",
          "name": "owner",
          "type": "address"
        },
        {
          "internalType": "contract IERC20",
          "name": "saleToken",
          "type": "address"
        },
        {
          "internalType": "contract IERC20",
          "name": "vestingToken",
          "type": "address"
        },
        {
          "internalType": "uint256",
          "name": "totalSaleAmount",
          "type": "uint256"
        },
        {
          "internalType": "bool",
          "name": "isPrivateSale",
          "type": "bool"
        },
        {
          "internalType": "bool",
          "name": "isPublicSale",
          "type": "bool"
        }
      ],
      "stateMutability": "view",
      "type": "function"
    },
    {
      "inputs": [],
      "name": "getProjectCount",
      "outputs": [
        {
          "internalType": "uint256",
          "name": "",
          "type": "uint256"
        }
      ],
      "stateMutability": "view",
      "type": "function"
    },
    {
      "inputs": [
        {
          "internalType": "uint256",
          "name": "_id",
          "type": "uint256"
        }
      ],
      "name": "getProjectCurrentPrice",
      "outputs": [
        {
          "internalType": "uint256",
          "name": "saleTokenPrice",
          "type": "uint256"
        },
        {
          "internalType": "uint256",
          "name": "nativeTokenPrice",
          "type": "uint256"
        },
        {
          "internalType": "uint256",
          "name": "timestamp",
          "type": "uint256"
        }
      ],
      "stateMutability": "view",
      "type": "function"
    },
    {
      "inputs": [
        {
          "internalType": "uint256",
          "name": "_id",
          "type": "uint256"
        },
        {
          "internalType": "address",
          "name": "_investor",
          "type": "address"
        }
      ],
      "name": "getProjectInvestor",
      "outputs": [
        {
          "internalType": "uint256",
          "name": "allowanceAmount",
          "type": "uint256"
        },
        {
          "internalType": "uint256",
          "name": "investedAmount",
          "type": "uint256"
        },
        {
          "internalType": "uint256",
          "name": "reminingVestingAmount",
          "type": "uint256"
        },
        {
          "internalType": "uint256",
          "name": "lastClaimTime",
          "type": "uint256"
        }
      ],
      "stateMutability": "view",
      "type": "function"
    },
    {
      "inputs": [
        {
          "internalType": "uint256",
          "name": "_id",
          "type": "uint256"
        },
        {
          "internalType": "address",
          "name": "_investor",
          "type": "address"
        }
      ],
      "name": "getReleasedAmount",
      "outputs": [
        {
          "internalType": "uint256",
          "name": "",
          "type": "uint256"
        }
      ],
      "stateMutability": "view",
      "type": "function"
    },
    {
      "inputs": [
        {
          "internalType": "uint256",
          "name": "_id",
          "type": "uint256"
        },
        {
          "internalType": "uint256",
          "name": "_allocation",
          "type": "uint256"
        }
      ],
      "name": "invest",
      "outputs": [],
      "stateMutability": "payable",
      "type": "function"
    },
    {
      "inputs": [],
      "name": "owner",
      "outputs": [
        {
          "internalType": "address",
          "name": "",
          "type": "address"
        }
      ],
      "stateMutability": "view",
      "type": "function"
    },
    {
      "inputs": [
        {
          "internalType": "uint256",
          "name": "",
          "type": "uint256"
        }
      ],
      "name": "projects",
      "outputs": [
        {
          "internalType": "uint256",
          "name": "id",
          "type": "uint256"
        },
        {
          "internalType": "address payable",
          "name": "owner",
          "type": "address"
        },
        {
          "internalType": "uint256",
          "name": "totalSaleAmount",
          "type": "uint256"
        },
        {
          "internalType": "uint256",
          "name": "totalSoldAmount",
          "type": "uint256"
        },
        {
          "internalType": "uint256",
          "name": "totalInvestors",
          "type": "uint256"
        },
        {
          "internalType": "uint256",
          "name": "tokenPerAllocation",
          "type": "uint256"
        },
        {
          "internalType": "contract IERC20",
          "name": "saleToken",
          "type": "address"
        },
        {
          "internalType": "contract IERC20",
          "name": "vestingToken",
          "type": "address"
        },
        {
          "internalType": "uint256",
          "name": "privateSalePrice",
          "type": "uint256"
        },
        {
          "internalType": "uint256",
          "name": "publicSalePrice",
          "type": "uint256"
        },
        {
          "internalType": "uint256",
          "name": "nativePrivateSalePrice",
          "type": "uint256"
        },
        {
          "internalType": "uint256",
          "name": "nativePublicSalePrice",
          "type": "uint256"
        },
        {
          "internalType": "uint256",
          "name": "privateStartTime",
          "type": "uint256"
        },
        {
          "internalType": "uint256",
          "name": "privateEndTime",
          "type": "uint256"
        },
        {
          "internalType": "uint256",
          "name": "publicStartTime",
          "type": "uint256"
        },
        {
          "internalType": "uint256",
          "name": "publicEndTime",
          "type": "uint256"
        },
        {
          "internalType": "uint256",
          "name": "vestingStartTime",
          "type": "uint256"
        },
        {
          "internalType": "uint256",
          "name": "initialReleasePercent",
          "type": "uint256"
        },
        {
          "internalType": "uint256",
          "name": "cliffStartTime",
          "type": "uint256"
        },
        {
          "internalType": "uint256",
          "name": "cliffEndTime",
          "type": "uint256"
        },
        {
          "internalType": "bool",
          "name": "allowTieredSale",
          "type": "bool"
        },
        {
          "internalType": "uint256",
          "name": "vestingTokenFunedAmount",
          "type": "uint256"
        },
        {
          "internalType": "uint256",
          "name": "saleTokenReceived",
          "type": "uint256"
        },
        {
          "internalType": "uint256",
          "name": "nativeTokenReceived",
          "type": "uint256"
        }
      ],
      "stateMutability": "view",
      "type": "function"
    },
    {
      "inputs": [
        {
          "internalType": "address",
          "name": "_admin",
          "type": "address"
        }
      ],
      "name": "removeAdmin",
      "outputs": [],
      "stateMutability": "nonpayable",
      "type": "function"
    },
    {
      "inputs": [
        {
          "internalType": "uint256",
          "name": "_id",
          "type": "uint256"
        },
        {
          "internalType": "address",
          "name": "_investor",
          "type": "address"
        }
      ],
      "name": "removeFromWhitelist",
      "outputs": [],
      "stateMutability": "nonpayable",
      "type": "function"
    },
    {
      "inputs": [
        {
          "internalType": "uint256",
          "name": "_id",
          "type": "uint256"
        }
      ],
      "name": "removeProject",
      "outputs": [],
      "stateMutability": "nonpayable",
      "type": "function"
    },
    {
      "inputs": [],
      "name": "renounceOwnership",
      "outputs": [],
      "stateMutability": "nonpayable",
      "type": "function"
    },
    {
      "inputs": [
        {
          "internalType": "address",
          "name": "_investor",
          "type": "address"
        },
        {
          "internalType": "uint256",
          "name": "_count",
          "type": "uint256"
        }
      ],
      "name": "setAccessCount",
      "outputs": [],
      "stateMutability": "nonpayable",
      "type": "function"
    },
    {
      "inputs": [
        {
          "internalType": "address",
          "name": "_investor",
          "type": "address"
        },
        {
          "internalType": "uint256",
          "name": "_tier",
          "type": "uint256"
        }
      ],
      "name": "setTier",
      "outputs": [],
      "stateMutability": "nonpayable",
      "type": "function"
    },
    {
      "inputs": [
        {
          "internalType": "address",
          "name": "",
          "type": "address"
        }
      ],
      "name": "tier",
      "outputs": [
        {
          "internalType": "uint256",
          "name": "",
          "type": "uint256"
        }
      ],
      "stateMutability": "view",
      "type": "function"
    },
    {
      "inputs": [
        {
          "internalType": "address",
          "name": "newOwner",
          "type": "address"
        }
      ],
      "name": "transferOwnership",
      "outputs": [],
      "stateMutability": "nonpayable",
      "type": "function"
    }
  ],
  "bytecode": "0x6080604081815260008054336001600160a01b0319821681178355906001600160a01b03167f8be0079c531659141344cd1fd0a4f28419497f9722a3daafe3b4186f6b6457e08380a3338152600360205220805460ff19166001179055611d8e90816100698239f3fe61020080604052600436101561001457600080fd5b60003560e01c908163015135151461187e575080630496041314611860578063107046bd146116835780631785f53c1461164157806321c2dfea146115b55780632785f8bb1461157b5780633bcff3b01461155d578063429b62e51461151e5780635873f9981461126a5780637048027514611225578063715018a6146111cc5780637d91220b146111925780638c8b3892146111195780638da5cb5b146110f0578063a914adce1461109f578063ac97b41714610f06578063d17831c214610977578063d87aa643146103d6578063ead60c92146103a5578063f0f3f2c8146102ff578063f2fde38b14610236578063fdade70a14610208578063fe19b689146101b75763fea3e6131461012857600080fd5b346101b25760403660031901126101b2576004356101446118c4565b60008281526002602052604090206001015490916001600160a01b0391821633148015610199575b61017590611b4e565b60005260026020526005604060002001911660005260205260006040812055600080f35b503360009081526003602052604090205460ff1661016c565b600080fd5b346101b25760403660031901126101b2576101d06118da565b3360005260036020526101ea60ff60406000205416611a37565b6001600160a01b031660009081526004602052604090206024359055005b346101b25760403660031901126101b257602061022e6102266118c4565b600435611a71565b604051908152f35b346101b25760203660031901126101b25761024f6118da565b6102576118f0565b6001600160a01b039081169081156102ab57600054826bffffffffffffffffffffffff60a01b821617600055167f8be0079c531659141344cd1fd0a4f28419497f9722a3daafe3b4186f6b6457e0600080a3005b60405162461bcd60e51b815260206004820152602660248201527f4f776e61626c653a206e6577206f776e657220697320746865207a65726f206160448201526564647265737360d01b6064820152608490fd5b346101b25760203660031901126101b257600435600052600260205260c0604060002060018060a01b039081600182015416918060078301541690600883015416600283015490600d84015442109283610396575b42600f860154119485610388575b5060405195865260208601526040850152606084015215156080830152151560a0820152f35b601001544211945087610362565b925042600e8501541092610354565b346101b25760203660031901126101b25760606103c3600435611b9a565b9060405192835260208301526040820152f35b60403660031901126101b25760043560005260026020526040600020600d8101908154421080159182610968575b336000526005810160205260406000205415916109305760168101549160028201548093036108f657601082015442116108bb576024908135156108645784610774575b5061045860068301548235611948565b938015610769576009830154935b61047486600386015461195b565b1161072e57336000526019830160205260406000209560018060a01b03875416156106e7575b54421015806106d9575b6106a8575b60018601936104b986865461195b565b85556104c986600386015461195b565b60038501556104dd6002880196875461195b565b865534156106045750600c83015490811515806105ff575b156105bb57156105b55750600b820154905b8134106105725750906019916105226018830191825461195b565b90555b336000520160205260406000209280840361053c57005b805484546001600160a01b0319166001600160a01b03919091161784559054600184015590546002830155600390810154910155005b60649060206040519162461bcd60e51b83528160048401528201527f496e73756666696369656e74206e617469766520746f6b656e20616d6f756e746044820152fd5b90610507565b60405162461bcd60e51b8152602060048201819052818501527f4e6174697665207075626c69632073616c65207072696365206e6f74207365746044820152606490fd5b6104f5565b60078401546040516323b872dd60e01b815233600482015230602482015260448101839052949350909150602090849060649082906000906001600160a01b03165af192831561069c5760199361066d575b506106666017830191825461195b565b9055610525565b61068e9060203d602011610695575b61068681836119e7565b810190611a1f565b5086610656565b503d61067c565b6040513d6000823e3d90fd5b33600052600583016020526106c382356040600020546119da565b33600052600584016020526040600020556104a9565b50600e8301544211156104a4565b6004840180549060018201809211610719575586546001600160a01b031916331787556013840154600388015561049a565b84634e487b7160e01b60005260116004526000fd5b60405162461bcd60e51b8152602060048201526014818401527314d85b1948185b5bdd5b9d08195e18d95959195960621b6044820152606490fd5b600a83015493610466565b61080f5733600052600582016020528035604060002054106107965785610448565b60a49060466040519162461bcd60e51b8352602060048401528201527f596f7520617265206e6f742077686974656c697374656420666f72207072697660448201527f6174652073616c65206f7220657863656564656420616c6c6f636174696f6e20606482015265185b5bdd5b9d60d21b6084820152fd5b60849060286040519162461bcd60e51b8352602060048401528201527f596f7520617265206e6f742077686974656c697374656420666f7220707269766044820152676174652073616c6560c01b6064820152fd5b60405162461bcd60e51b815260206004820152602a818401527f416c6c6f636174696f6e20616d6f756e742073686f756c6420626520677265616044820152690746572207468616e20360b41b6064820152608490fd5b60405162461bcd60e51b815260206004820152601360248201527214d85b19481a185cc81899595b88195b991959606a1b6044820152606490fd5b60405162461bcd60e51b8152602060048201526012602482015271131a5cdd1a5b99c81b9bdd08199d5b99195960721b6044820152606490fd5b60405162461bcd60e51b815260206004820152601060248201526f14d85b1948139bdd081cdd185c9d195960821b6044820152606490fd5b600e8101544211159250610404565b346101b2576102203660031901126101b2576004356001600160a01b03811681036101b2576109a46118c4565b6044803591906001600160a01b03831683036101b25733600052600460205260406000205492600360205260ff6040600020541615610e84575b6001805401948560015560c43591620151809283810290808204851490151715610c2557610a0e9060a43561195b565b916101043584810290808204861490151715610c2557610a309060e43561195b565b9361018435818102918183041490151715610c2557610a52906101643561195b565b944260a4351115610e1a578360e4351115610da457610a75856101243511611968565b61271061014435111580610d9c575b15610d325761012435610164351115610cc85760843515610cb25760843560643506610c48575090610b4b939291886000526002602052604060002096898855600188016bffffffffffffffffffffffff60a01b9260018060a01b031683825416179055600788019060018060a01b031682825416179055600887019160018060a01b031690825416179055606435600286015560a435600d86015580600e86015560e435600f860155816010860155816101243511916101243511610c3b575b50611968565b61012435601183015561014435601283015561016435601383015560148201556015810160ff19815416905560843560068201556101a435600b8201556101c435600c8201556101e4356009820155600a6102043591015580610bdf575b7f1ac2092e16e28eef29d1832f3dc69da1b21284a1f3159d3b26cb238b22fe4f8a602083610bd681611c15565b604051908152a1005b6000198101908111610c25577f1ac2092e16e28eef29d1832f3dc69da1b21284a1f3159d3b26cb238b22fe4f8a9160209133600052600483526040600020559150610ba9565b634e487b7160e01b600052601160045260246000fd5b9050610124351186610b45565b6084907f546f74616c2073616c6520616d6f756e742073686f756c6420626520646976696040519162461bcd60e51b835260206004840152603d60248401528201527f7369626c6520627920746f6b656e2070657220616c6c6f636174696f6e0000006064820152fd5b634e487b7160e01b600052601260045260246000fd5b6084907f436c6966662073746172742074696d652073686f756c642062652067726561746040519162461bcd60e51b835260206004840152603a60248401528201527f6572207468616e2076657374696e672073746172742074696d650000000000006064820152fd5b6084907f496e697469616c2072656c656173652070657263656e742073686f756c6420626040519162461bcd60e51b835260206004840152603d60248401528201527f65206c657373207468616e206f7220657175616c20746f2031303030300000006064820152fd5b506001610a84565b60a4907f5075626c69632073616c652073746172742074696d652073686f756c642062656040519162461bcd60e51b835260206004840152604360248401528201527f2067726561746572207468616e20707269766174652073616c6520656e642074606482015262696d6560e81b6084820152fd5b6084907f507269766174652073616c652073746172742074696d652073686f756c6420626040519162461bcd60e51b835260206004840152603b60248401528201527f652067726561746572207468616e2063757272656e742074696d6500000000006064820152fd5b836109de5760405162461bcd60e51b815260206004820152604a60248201527f4163636573732064656e6965642c506c6561736520636f6e746163742061646d818401527f696e20696620796f752061726520617574686f72697a656420746f20637265616064820152691d19481c1c9bda9958dd60b21b608482015260a490fd5b6020806003193601126101b25760043590816000526002815260406000209133600052601983018252604060002060018060a01b039333858354160361104e5760028201918254928315610fff57859260009792600892610f71610f6a338a611a71565b80986119da565b905560034291015501541660446040518097819363a9059cbb60e01b83523360048401528660248401525af192831561069c577f8bf4e22394f0c1efa40f0fd50aad9c002d74a35439beb020076d7d8ef093b9b094606094610fe2575b5060405192835233908301526040820152a1005b610ff890823d84116106955761068681836119e7565b5085610fce565b60405162461bcd60e51b815260048101879052602160248201527f596f7520646f6e2774206861766520616e792076657374696e6720616d6f756e6044820152601d60fa1b6064820152608490fd5b60405162461bcd60e51b8152600481018590526024808201527f596f7520617265206e6f7420696e766573746f72206f6620746869732070726f6044820152631a9958dd60e21b6064820152608490fd5b346101b25760403660031901126101b2576110b86118da565b3360005260036020526110d260ff60406000205416611a37565b6001600160a01b031660009081526005602052604090206024359055005b346101b25760003660031901126101b2576000546040516001600160a01b039091168152602090f35b346101b25760403660031901126101b25760806111346118c4565b600435600052600260205260406000209060018060a01b031660005260198101602052600560406000209101602052604060002054906001810154906003600282015491015491604051938452602084015260408301526060820152f35b346101b25760203660031901126101b2576001600160a01b036111b36118da565b1660005260046020526020604060002054604051908152f35b346101b25760003660031901126101b2576111e56118f0565b600080546001600160a01b0319811682556001600160a01b03167f8be0079c531659141344cd1fd0a4f28419497f9722a3daafe3b4186f6b6457e08280a3005b346101b25760203660031901126101b25761123e6118da565b6112466118f0565b6001600160a01b03166000908152600360205260409020805460ff19166001179055005b346101b2576020806003193601126101b25760043590816000526002815260406000209160018060a01b0380600185015416908133148015611507575b156114c257600385015461146f57600485015461141e57600d8501544210156113c25790604460168593600888015416960154916000604051978894859363a9059cbb60e01b8552600485015260248401525af192831561069c576002936113a5575b5060005252600060186040822082815582600182015582600282015582600382015582600482015582600682015582600782015582600882015582600982015582600a82015582600b82015582600c82015582600d82015582600e82015582600f8201558260108201558260118201558260128201558260138201558260148201558260158201558260168201558260178201550155600080f35b6113bb90833d85116106955761068681836119e7565b508361130a565b60405162461bcd60e51b815260048101859052602e60248201527f43616e27742072656d6f76652070726f6a65637420776974682073746172746560448201526d6420707269766174652073616c6560901b6064820152608490fd5b60405162461bcd60e51b815260048101859052602360248201527f43616e27742072656d6f76652070726f6a656374207769746820696e766573746044820152626f727360e81b6064820152608490fd5b60405162461bcd60e51b815260048101859052602560248201527f43616e27742072656d6f76652070726f6a656374207769746820736f6c6420616044820152641b5bdd5b9d60da1b6064820152608490fd5b60405162461bcd60e51b815260048101859052601d60248201527f4f6e6c79206f776e65722063616e2072656d6f76652070726f6a6563740000006044820152606490fd5b50336000526003845260ff604060002054166112a7565b346101b25760203660031901126101b2576001600160a01b0361153f6118da565b166000526003602052602060ff604060002054166040519015158152f35b346101b25760003660031901126101b2576020600154604051908152f35b346101b25760203660031901126101b2576001600160a01b0361159c6118da565b1660005260056020526020604060002054604051908152f35b346101b25760603660031901126101b2576004356115d16118c4565b60008281526002602052604090206001015490916001600160a01b0391821633148015611628575b61160290611b4e565b600052600260205260056040600020019116600052602052604435604060002055600080f35b503360009081526003602052604090205460ff166115f9565b346101b25760203660031901126101b25761165a6118da565b6116626118f0565b6001600160a01b03166000908152600360205260409020805460ff19169055005b346101b25760203660031901126101b257600435600052600260205260406000208060e052808054600160a01b60019003806001840154166101005260028301546101e0526003830154906004840154906006850154908060078701541690600887015416600987015490600a88015492600b89015494600c8a015496600d8b015498600e8c01549a600f8d01549c601001549d601181015460c052601281015460805260138101546101605260148101546101c052601581015460ff1660a05260168101546101a05260178101546101805260180154610140526040518061012052526101005161012051602001526101e0516101205160400152610120516060015261012051608001526101205160a001526101205160c001526101205160e00152610120516101000152610120516101200152610120516101400152610120516101600152610120516101800152610120516101a00152610120516101c00152610120516101e0015260c051610120516102000152608051610120516102200152610160516101205161024001526101c05161012051610260015260a05115156101205161028001526101a051610120516102a0015261018051610120516102c0015261014051610120516102e001526101205161030090f35b346101b25760203660031901126101b25761187c600435611c15565b005b346101b25760403660031901126101b25760209061189a6118c4565b6004356000526002835260056040600020019060018060a01b031660005282526040600020548152f35b602435906001600160a01b03821682036101b257565b600435906001600160a01b03821682036101b257565b6000546001600160a01b0316330361190457565b606460405162461bcd60e51b815260206004820152602060248201527f4f776e61626c653a2063616c6c6572206973206e6f7420746865206f776e65726044820152fd5b81810292918115918404141715610c2557565b91908201809211610c2557565b1561196f57565b60405162461bcd60e51b815260206004820152603e60248201527f56657374696e672073746172742074696d652073686f756c642062652067726560448201527f61746572207468616e207075626c69632073616c6520656e642074696d6500006064820152608490fd5b91908203918211610c2557565b90601f8019910116810190811067ffffffffffffffff821117611a0957604052565b634e487b7160e01b600052604160045260246000fd5b908160209103126101b2575180151581036101b25790565b15611a3e57565b60405162461bcd60e51b815260206004820152600b60248201526a4f6e6c792041646d696e7360a81b6044820152606490fd5b9060009182526002602052604082209160018060a01b03809216815260198301602052604081209182541615611b4857611ab460148401546011850154906119da565b9160126001820154940154612710908103818111611b3457611ad69086611948565b0490600281015494858114611b20575b508315610cb257611b046003611b0f95611b099404920154426119da565b611948565b9061195b565b90808211611b1b575090565b905090565b611b2d91935082906119da565b9138611ae6565b634e487b7160e01b84526011600452602484fd5b91505090565b15611b5557565b60405162461bcd60e51b815260206004820152601f60248201527f4f6e6c79206f776e65722063616e2061646420746f2077686974656c697374006044820152606490fd5b60005260026020526040600020600d81015442101580611c07575b600f8201544210159081611bf8575b611be757611bd757506000906000904290565b90600c600a830154920154904290565b5090600b6009830154920154904290565b60108301544211159150611bc4565b50600e810154421115611bb5565b600090815260209060028252604080822060018060a01b038060018301541633148015611d44575b15611d00576016820191825492600282015480941015611cc3578390556008015483516323b872dd60e01b815233600482015230602482015260448101939093529193918591859160649183918691165af1918215611cb9575050611ca0575050565b81611cb692903d106106955761068681836119e7565b50565b51903d90823e3d90fd5b845162461bcd60e51b8152600481018890526016602482015275131a5cdd1a5b99c8185b1c9958591e48199d5b99195960521b6044820152606490fd5b825162461bcd60e51b815260048101869052601b60248201527f4f6e6c79206f776e65722063616e2066756e64206c697374696e6700000000006044820152606490fd5b503384526003855260ff8385205416611c3d56fea2646970667358221220e90b08579db4d1569d16121e5e450b8453ec7ba6756e83f6d5f4ab636e3cd13064736f6c63430008120033",
  "linkReferences": {},
  "deployedLinkReferences": {}
}